:020000042022B8
:100000006F000010808C00000001222000012220DF
:100010000001222000012220000122200000000017
:1000200000000000000000000000000000000000D0
:1000300000000000000000000000000000000000C0
:1000400000000000000000000000000000000000B0
:1000500000000000000000000000000000000000A0
:100060000000000000000000000000000000000090
:100070000000000000000000000000000000000080
:100080000000000000000000000000000000000070
:100090000000000000000000000000000000000060
:1000A0000000000000000000000000000000000050
:1000B0000000000000000000000000000000000040
:1000C0000000000000000000000000000000000030
:1000D000FFFFFFFF424F4F54204D4F44452031203A
:1000E00044554D4D5920534249430000FFFFFFFF47
:1000F0000000000000000000000000000000000000
:10010000EF00C051170700001307472B731057303B
:10011000F3275030E31EF7FE1306800073300630DD
:100120007310403073104034732540F163060500AE
:1001300073503030735020307310003473102034FB
:10014000731010347310003A7310203A93000000BB
:10015000130100009301000013020000930200004D
:100160001303000093030000130400009304000035
:10017000130500009305000013060000930600001D
:100180001307000093070000130800009308000005
:100190001309000093090000130A0000930A0000ED
:1001A000130B0000930B0000130C0000930C0000D5
:1001B000130D0000930D0000130E0000930E0000BD
:1001C000130F0000930F0000B7E2010073A002308C
:1001D000732540F16304050073103000F3221030E2
:1001E00063C402006FF09FFF9701DEE79381816196
:1001F000732540F1930500006302B50293051000DA
:100200006308B50293052000630EB5029305300024
:100210006304B50493054000630AB5041767DEE77D
:10022000130747DE1781DEE71301C1DD6F0000050C
:100230001787DEE7130707DD17A1DEE7130181DC6F
:100240006F00C00317A7DEE71307C7DB17C1DEE7A0
:10025000130141DB6F00800217C7DEE7130787DA5F
:1002600017E1DEE7130101DA6F00400117E7DEE76F
:10027000130747D91701DFE71301C1D8930701001E
:100280002330070013078700E34CF7FE130101FC3E
:1002900013020100732540F193050000631AB508AD
:1002A000130610006306C000EF00802EEF00802CC4
:1002B00013051000EF00402FEF00D028EF0030288A
:1002C000EF00802A1737DEE71307C7DE9757DEE710
:1002D000938747DE2330070013078700E34CF7FEC0
:1002E000370770011B07070223000700371770014B
:1002F0001B07070223000700372770011B070702AF
:1003000023000700373770011B070702230007008F
:10031000374770011B07070223000700130502007F
:100320006F00405D13000000130000006FF09FFF9E
:100330001306800073300630731040307310403461
:100340001306800073104630B74634129B8616326F
:100350009785DEE7938505C703E60500E39EC6FEA5
:10036000B75534129B8585672320B2000F1000001B
:10037000730050107326403413768600E30A06FE9D
:100380001306800073300630731040307310403411
:10039000B72502009B8555D99395E50093851532C5
:1003A0002320B200130502006F00A04513000000D7
:1003B000130000006FF09FFF130101F023382100AC
:1003C0002338A104233CB10423341100233C310021
:1003D000233041022334510223386102233C71024D
:1003E00023308104233491042330C1062334D10601
:1003F0002338E106233CF106233001092334110997
:1004000023382109233C31092330410B2334510B7C
:100410002338610B233C710B2330810D2334910D64
:100420002338A10D233CB10D2330C10F2334D10F4C
:100430002338E10F233CF10F13050100F32530347D
:1004400073261034EF00D0058330810083318101A1
:1004500003320102833281020333010383338103B8
:100460000334010483348104033501058335810598
:100470000336010683368106033701078337810778
:100480000338010883388108033901098339810958
:10049000033A010A833A810A033B010B833B810B38
:1004A000033C010C833C810C033D010D833D810D18
:1004B000033E010E833E810E033F010F833F810FF8
:1004C0000331010113010110730020301306800075
:1004D0007310463013068000732006300F100000A2
:1004E000678000006358B5002330050013058500C0
:1004F0006FF05FFF67800000630AB5002330C5001E
:1005000013058500130686006FF01FFF678000004B
:10051000638EA500638CC5008336050023B0D5002B
:1005200013058500938585006FF0DFFE678000006E
:100530009717DEE09387076D1787000013078792F0
:100540006382E7029716DEE09386C66B638CD70062
:100550000326070023A0C70093874700130747001F
:10056000E3E8D7FE678000003707000A930705001D
:100570006F008002170600001306C6B83707000890
:100580003376E60063100602B70720086F00C0004C
:1005900037070001B7270001233007001307870042
:1005A000E34CF7FE6780000013151501B707000A3A
:1005B0003305F5006302F50283B60700938707044D
:1005C000E39CA7FEB707000AB706010223B0F62096
:1005D00093870704E39CA7FE67800000B70701022A
:1005E0009B8787161307050083A307002320770046
:1005F000B70701029B8787141387050083A30700B1
:1006000023207700B70701029B8787101307060096
:1006100083A30700232077006780000093870000F2
:1006200013000000EF004002130000001300000060
:10063000130000001300000013000000130000006E
:100640009380070067800000130000001300000083
:10065000130000001300000013000000130000004E
:1006600067800000000000002A83B682054323A0B3
:100670006200014323A26200328323B462002A8312
:1006800023B862002E8323BC62001B03F00F1313F8
:10069000830123A262000D4323A062000F00F00F2C
:1006A0008280AA8203A3020013732300E31C03FECB
:1006B00023A0020082802A83AE8311C62300730028
:1006C0007D16050365FE82802A8309CA838305009F
:1006D000230073007D16050385056DFA82802A8349
:1006E00009CA83930500231073007916090389054D
:1006F0006DFA82802A8309CA83A305002320730030
:100700007116110391056DFA82802A8309CA83B399
:1007100005002330730061162103A1056DFA828064
:100720002A83AE832A8E23300300833E0300130303
:100730000304E34A73FE370301022330C321130E7F
:100740000E04E34C7EFE8280000037350020114607
:10075000970500009385053D13050512B5B74111B6
:100760001776000013060670970500009385856DC7
:10077000170500001305056D06E4EFF07FD9138619
:1007800001829705DEE79385E5871775000013055D
:10079000656DEFF0FFD71706DEE71306A67897051D
:1007A000DEE793852588177500001305A56DEFF02A
:1007B0003FD69705DEE79385E57E1705DEE713054F
:1007C0006576EFF03FD29735DEE79385A58E170566
:1007D000DEE71305257DEFF0FFD0A26041016F3009
:1007E000C066411106E4EF30A047A2600145410117
:1007F0008280411106E4EF30205CA2600145410196
:10080000828097F7DEE79387E77F1CE9B7A7A2A16D
:100810009387473A1CC5232605005C411147812771
:100820006365F70A170700001307C70B8A07BA9713
:100830009C43011106ECBA9782879777DEE793878E
:1008400067783301F0003EE4EF40B03D1707DEE784
:100850001307C76D1C6385079706DEE723B8F66CA0
:10086000D5BF0545EFF0FFF89797DEE793878775CB
:100870003301F0003EE4EF40102BC9BF0945EFF013
:100880005FF797B7DEE79387E7733301F0003EE445
:10089000EF40302265BF0D45EFF0BFF597D7DEE79B
:1008A000938747723301F0003EE4EF40501979BF5F
:1008B0001145EFF01FF497F7DEE79387A770330138
:1008C000F0003EE4EF40701051B71707DEE7130762
:1008D000E7651C6385079706DEE723B9F664D5BF95
:1008E0005AFFFFFF82FFFFFF9CFFFFFFB6FFFFFFE6
:1008F000D0FFFFFF011106ECF32740F1EFF03FE6D8
:10090000EFF0BFE4EF20B05CEFF0BFED0145EFF09A
:100910005FEE0145EF30A0490145EF20F015EF20D3
:10092000D017EF20D02001473706000C9306B00BFC
:1009300093170702F983B29723A207000527E3194B
:10094000D7FE0147B705000C1D46A54693170702C1
:10095000819393870720B207AE9790C30527E317CB
:10096000D7FE01473706000C8965994693170702A1
:10097000F983B297AE9723A0070023A0070823A00E
:10098000071023A0071823A0072023A0072823A0CF
:10099000073023A0073823A007400527E318D7FC1A
:1009A000F32640F117770000130747ED8E06BA963D
:1009B0009C62BD4593870720B207B297DC43370698
:1009C000000C81273EC4A2478127F9EFB7473412B4
:1009D000938717321777DEE72326F75E9777DEE7F0
:1009E00023A4075E37466587B755341281461777CB
:1009F000DEE71307275D85470948B70E00028548E3
:100A00000D43130616329385856717DFDEE7130F54
:100A10006F5F914F97F2DEE79382C25E97B3DEE796
:100A20009383435E9790DEE79380C05D154E6384A9
:100A3000060D638E660C638A160B7A8763896700DE
:100A400016876386F7011E876383070106871307EE
:100A500007FC8546E39DC7FDB75755559387575506
:100A600001468145130500021777DEE7232CF75472
:100A7000EF30E02C0146814513051002EF30202CA9
:100A80000146814513052002EF30602B0146814568
:100A900013053002EF30A02AEF3000301775DEE783
:100AA00013054552EFF0FFD5A2468126F32740F10A
:100AB0008E07BA979C6393870720B207B297D4C377
:100AC0002EC6B247812791EFF32740F18E07BA97E0
:100AD0009C6393870720B207B297DC4381273EC40B
:100AE000DDB5B247FD373EC6E9BF08430125E31334
:100AF000B5F6894685B79B86070054C393962700B1
:100B0000F69623A016010F00F00F8D46A1B70843FB
:100B10000125E311C5F4852793F7F70F81461DBF23
:100B20001305000073104534730050106FF05FFF21
:100B30006FF01FFF6FF0DFFE6FF09FFE6FF05FFE44
:100B4000797106F422F026ECF32740F19774000047
:100B50009384C4D28E07A6979C633704000C9387B6
:100B60000720B207A297DC4381273EC6B247812700
:100B7000BDCB324797F7DDE79387C76F02177583C1
:100B80003E971C63829732470127F32740F18E0777
:100B9000BE949C6093870720B207A297D8C385476D
:100BA0006313F50432470127F32740F1914663ECC4
:100BB000F602170600001306660B8A07B2979443E5
:100BC0009B5757008217B2967D8BF9838286B72692
:100BD000000CB697904385463B97E6001347F7FF16
:100BE000718F012798C3A2700274E264456182800C
:100BF000B726000CB69703A6070885463B97E60084
:100C00001347F7FF718F012723A0E708E9BFB72635
:100C1000000CB69703A6071885463B97E6001347D6
:100C2000F7FF718F012723A0E71875BFB726000CC7
:100C3000B69703A6072885463B97E6001347F7FFBC
:100C4000718F012723A0E72879BFB726000CB6973C
:100C500003A6073885463B97E6001347F7FF718FD9
:100C6000012723A0E73841B766FFFFFF88FFFFFF9A
:100C7000A6FFFFFFC4FFFFFFE2FFFFFFF32740F1E6
:100C8000139737009707DEE7938747BCBA9741353C
:100C90009C631375F50F0E053E9503330500028323
:100CA0004111F32720343EE4A26763D20702A26712
:100CB00005570583F98F81CFA267130710F80583C5
:100CC000F98F91E7226541011375F50F45BFA267C2
:100CD00063DA0700A2672D47860785836394E700E0
:100CE0004101B9BDA26763DB0700A2670D47860714
:100CF00085836395E70041016F203034A26763DB91
:100D00000700A2671D47860785836395E7004101B9
:100D10006F20702922678147635C07002267930672
:100D20000008060705836315D70041016F20901F57
:100D300005678527E39FE7FEA2678127DDBF3705AB
:100D4000080A8280B70701022D47A1072FB0E708E4
:100D5000B727002023AA0716B71701021307F00FC1
:100D6000938607802FB0E608938687802FB0E60829
:100D7000938607812FB0E608938687812FB0E60817
:100D8000938607822FB0E608938607832FB0E60884
:100D9000938687832FB0E608938607842FB0E608F2
:100DA000938687842FB0E608938607852FB0E608E0
:100DB000938687852FB0E608938607862FB0E608CE
:100DC000938687862FB0E608938707872FB0E708BA
:100DD000970700009387870683B807003707020A42
:100DE00093060010017537180102B7050200370697
:100DF0000A0AB307A700130388822F30D3080F0015
:100E0000F00F23B0170193870704E39CE7FE8606E3
:100E10000F00F00F3387B700E31DC7FCB7170102BF
:100E20001307F00F938787822FB0E7080F00F00FAA
:100E30008280000000000000000001C0BEEEFFC084
:100E40007D5582808967DCC10145828005458280AD
:100E50000145828001458280014582809707DEE757
:100E60009387470C986309EB1727DEE7130787245E
:100E70009706DEE723B8E60A9863B307A70097064C
:100E8000DEE723B1F60A3A8582804111F32700C0DC
:100E9000021501913E952AE4F32700C02267E3ED95
:100EA000E7FE41018280977700009387A7F8986357
:100EB00091678546BA9723A4074023A2074023AA37
:100EC000B7404111631AD61E23ACC74023AA074A74
:100ED00023AC074A9167BA97D14623A0D742FD5663
:100EE00023AED74A23A0D74C23A2D74C23A4D74C58
:100EF00023A6D74C93761500B9C683A6C74B7D763B
:100F00003D06812693F606F023AED74A83A6074C0A
:100F10008126F18E23A0D74C83A6474C4176130639
:100F2000F60F8126F18E23A2D74C83A6874C371665
:100F3000F0FF7D168126F18E23A4D74C83A6C74CE3
:100F4000812623A6D74C93772500A1CF9167BA9726
:100F500083A6C74B41761306F60F8126F18E23AE8A
:100F6000D74A83A6074C3716F0FF7D168126F18EEF
:100F700023A0D74C83A6474C370601FF7D16812658
:100F8000F18E23A2D74C83A6874C370610F07D162E
:100F90008126F18E23A4D74C83A6C74C812623A695
:100FA000D74C93774500B9C79167BA9783A6C74BCB
:100FB000370601FF7D168126F18E23AED74A83A620
:100FC000074C370610F07D168126F18E23A0D74CF2
:100FD00083A6474CA216A19223A2D74C83A6874C86
:100FE0009216919223A4D74C83A6C74C8126C19A0E
:100FF00023A6D74C93778500A1C79167BA9783A69C
:10100000C74B7D763D06A216A19223AED74A83A692
:10101000074C9216919223A0D74C83A6474C812669
:10102000C19A23A2D74C83A6874C812693F606F05B
:1010300023A4D74C83A6C74C8126F18E23A6D74C78
:10104000418931C59167BA9783A6C74B7D76130650
:10105000F60F812623AED74A83A6074C8126C19A74
:1010600023A0D74C83A6474C812693F6F6F023A203
:10107000D74C83A6874C8126F18E23A4D74C83A618
:10108000C74C45767D168126F18E23A6D74C9167F5
:101090003E97232007402322074085472322F7401D
:1010A00002E4B706000183278742858B89CB03259D
:1010B000474205894101828023AC074001BDA267F8
:1010C00085073EE4A267E3E0D7FE0945E5B793F75D
:1010D000260091E3C9BB13F5F60F8280B7670020A5
:1010E00005ED175700001307674F186323B0E7D0CB
:1010F000175700001307074F186323B4E7E017578B
:1011000000001307A74E186323B8E7E0B767002075
:10111000054723AEE7D08280175700001307874D9D
:10112000186323B0E7D02167930607FB23B4D7E009
:10113000130707FAD1BF7971854722F01394F7019D
:1011400022E4370780003AE83ECC280006F4230E5C
:101150000100EF10F06D930510402285D605EFF0E9
:101160002FDCA27002744561828001CD9707DEE713
:101170009387C7DC98438547630EF700894763016F
:10118000F70289471707DEE7232AF7DA9707DEE732
:1011900023A207DC9707DEE79387C7DB88438280BB
:1011A00051719707DEE79387A7D9A2F1804386F5AF
:1011B000A6EDCAE9CEE5D2E156FD5AF95EF562F137
:1011C00066ED6AE96EE59307B00363E78724175677
:1011D00000001306262E93162400B2969C42B29766
:1011E0008287F32700C01707DEE7233DF7D6B7E76E
:1011F000CF078D071707DEE72324F7D6B7E70400EC
:10120000938737561707DEE7232EF7D2894717074C
:10121000DEE72323F7D41306000895478145171509
:10122000DEE71305A55F1707DEE7A301F7D29707EF
:10123000DEE723A307D09707DEE723A707D0EFF069
:101240008FC7414681451715DEE71305255CEFF092
:101250008FC69707DEE723AD07CE91471707DEE776
:101260002320F7CE9707DEE723A687CEAE700E7455
:101270009707DEE7938707CE8843EE644E69AE6931
:101280000E6AEA7A4A7BAA7B0A7CEA6C4A6DAA6DEE
:101290006D618280977700009387C7B9846311647A
:1012A00005492694232024038569138589BB232EB1
:1012B0002401EFF09FBD37551200130505F8232ACE
:1012C0002401EFF09FBC9707DEE7938767C89C4334
:1012D00013060008814585271715DEE71305055419
:1012E0001707DEE72326F7C61717DEE72324F75292
:1012F0009707DEE723A207C49707DEE723A607C404
:10130000EFF06FBBC167BE9497770000938707B279
:101310009C6323A80404232C0402CE9723A80780EF
:1013200091471707DEE7232DF7C0FDA09547D5BFEE
:101330009707DEE7938707C1844397770000938779
:10134000E7AE8063AD679387A7A25CC01305400634
:10135000EFF0BFB3994723229418E1B797770000C5
:101360009387C7AC9C63054723A0E73023A0E738E9
:1013700023A0E7409D4775B797770000938707AB99
:101380009C630947114623A4E73A23A6E73A23A41E
:10139000C75823A60700854623A8D76623A6E74695
:1013A00023A6077223A2E73823A4E73823A6E73849
:1013B0001707DEE7130747BA23A8C738184323A641
:1013C000D74423A8074423ACE768A14799BFB707D0
:1013D000023E054798C3A547A9B7EF206025A94756
:1013E00089B70145EF10307FC167FD171707DEE7AA
:1013F0002326F7B6B14735B7EF20C008AD4715D162
:101400009707DEE7938787B59C431B84F7FF170791
:10141000DEE7232587B419C00144A9B59307B003BB
:1014200035BD0145EFF09FCBB727002083A64708C5
:10143000370680008126D18E23A2D70803A787080C
:10144000B70680FFFD160127518F23A4E70803A7E5
:1014500087080127758F23A4E708B547D9B5977783
:1014600000009387279D98638967114FBA9723A03F
:10147000074023A2074023A4074023A6E7412948A9
:1014800023A8074123AA074023AC074023AE074007
:1014900023A0074223A2074223A4074223A6074210
:1014A00023A807420D6623AA074293060014B30738
:1014B000C70023A0D7809306000A23A2D78023A4C5
:1014C000078023A6078023A8078023AA078023ACD0
:1014D000078023AE0780854623A0078223A2D782F8
:1014E000314323A4678223A66782916523A80782DC
:1014F000B307B70023A007C023A207C023A407C0D7
:1015000023A607C023A807C023AA07C023AC07C08F
:1015100023AE07C023A007C223A207C223A407C289
:1015200023A607C223A807C223AAD7C223AC07C297
:1015300023AE07C223A007C423A207C423A407C461
:1015400023A607C423A807C423AAD7C423AC07C46F
:1015500023AE07C423A007C623A2E7C7154423A4CC
:1015600087C623A607C623A8D7C6794523AAA7C638
:1015700023ACE7C723AE87C68D4323A077C8994E17
:1015800023A2D7C9A14223A457C8AD48BD4F23A663
:1015900017C923A8F7C91305A00E23AAA7C823AC0F
:1015A00007C823AE07C83725888123A207CC1305B7
:1015B000158823A0A7CE2565130E858123A2C7CF4A
:1015C000379E2AA9130E9E2A23A4C7CF130E26A93D
:1015D00023A6C7CF373E8CC2130E2E8C23A8C7CFAD
:1015E000130E85C223AAC7CF37AE2EEA130EAE2E36
:1015F00023ACC7CF130E26EA23AEC7CF374E9003D6
:10160000130E3E9023A0C7D1130E950323A2C7D17A
:1016100037BE322B130EBE3223A4C7D1130E362B86
:1016200023A6C7D1375E9444130E4E9423A8C7D186
:101630001305954423AAA7D037C5366C1305C536C4
:1016400023ACA7D01305366C23AEA7D03765988599
:101650001305559823A0A7D22965130E958523A2BB
:10166000C7D337DE3AAD130EDE3A23A4C7D3138EA9
:1016700035AD23A6C7D3377E9CC6130E6E9C23A818
:10168000C7D3130E95C623AAC7D337EE3EEE130E6B
:10169000EE3E23ACC7D3138E35EE23AEC7D3378EC1
:1016A000A007130E7EA023A0C7D5130EA50723A263
:1016B000C7D537FE422F130EFE4223A4C7D5138E83
:1016C000452F23A6C7D5379EA448130E8EA423A862
:1016D000C7D51305A54823AAA7D437054770130516
:1016E000054723ACA7D49385457023AEB7D423A078
:1016F00007D623A207D623A407D623A607D623A856
:1017000007D623AA07D623AC07D894C323A407007F
:1017100023A6070023A8070023AA070023AC07007D
:1017200023AE070023A0070223A2070223A4070277
:1017300023A6070223AA070223AC0702B4C3614E03
:1017400023A2C70523A407051D45E8C723A807054D
:1017500093051002ECCBC545ACCF93056007ECCFE9
:10176000A0D323A2070723A4570623A8070623AA6A
:10177000770693054002ACDF23A0670823A4F7098E
:10178000894523A6B70823A8B70823AAD70823ACFE
:10179000F70923AEB70823A0B70A23A2D70A23A4C8
:1017A000A70A414423A6870A23A8070A23AA070AEF
:1017B00023AC070A23A2070C056523A4070C130515
:1017C000B54423A6A70C371502001305058523A8E9
:1017D000A70C23AA070D23ACF70D23AEE70D23A01A
:1017E000070E23A2070E23A4070E23A6070E23A885
:1017F000070E23AA070E23AC070E23AE070E23A065
:10180000071223A2071223A4071223A6071223A854
:10181000071223AA071223AC071223AE071223A034
:10182000071623A2071623A4071623A6071623AC20
:10183000071623AE071623A0D71823A2071823A440
:10184000C719130F000F23A6E7191308002023A8B8
:10185000071923AAE71923AC071823AE171923A0E9
:10186000071A23A2071A23A4071A23A6771A23A864
:10187000071A23AA071A23AC071A23AED71A23A0E4
:10188000A71C23A2071C1305000823A4A71C23A63A
:10189000071C23A8D71C23AA071C23AE071C23A0C0
:1018A000071E23A2071E23A4071E23A6071E23A884
:1018B000071E23AA071E23AC071E23AE071E23A064
:1018C00007201306069B23A2C7201306004023A46B
:1018D000C72023A6072123A8A72023AA172123ACCA
:1018E000B72023AE872023A00722254623A2C722A4
:1018F00023A4672223A6072223A8D72223AA0722EC
:1019000023AE072223A2072423A4072423A6072407
:1019100023AC072423AE072423A0D72623A207261F
:1019200023A4072623A6072623A8072623AA0726DB
:1019300023AC072623AE07261306000323A0C728DF
:1019400023A2072823A4072823A6072823A0072AC1
:1019500023A2072A23A4072A23A6072A23A8072AA3
:1019600023AA072A23AE072A23A0072C23A2072C89
:1019700023A4072C23A6072C23A8072C23AA072C73
:1019800023AC072C23AE072C23A0072E23A2072E5F
:1019900023A4072E23A6072E1306006423A8C72E10
:1019A00023AA072E23AC072E23AE072E23A0073031
:1019B00023A2073023A4073023A6073023A807302B
:1019C00023AA573023AC173123AE073023A00732A8
:1019D00023A2073223A4073223A6073223A8073203
:1019E00023A2D73823AE073E9567BA9723A007C036
:1019F00023A207C023A407C023A607C023A807C0AB
:101A000023AA07C023AC07C023AE07C094C3D4C326
:101A100023A40700D4C71306F00F90CB23AC070014
:101A200023AE070023A0070223A0074023A2D7402C
:101A30009967BA9723A0D78023A0078423A207849D
:101A400023A4078423AE078423A007C023A0074054
:101A500023A2074023A4074023A6074023A807404A
:101A600023AA074023AC074023A8074223AA074222
:101A700023AC074223AE074223A0074423A2074416
:101A800023A4074423A6074423A8074423AA074402
:101A900023A60752216623A80754B307C70023A033
:101AA00007C023A207C023A6070023A80700C16719
:101AB000BA97D1458CC323A2D70194C7D4C723A812
:101AC000070023AA070023AE070023A0070223A8CC
:101AD000070223AE070223A0070423A2070423A8BA
:101AE0000704CD67BA9723AC07C023AE07C023A075
:101AF00007C2B705008023A207C293C5F5FF23AC38
:101B0000B7F023AE07F023A0B7F223A207F223AC6D
:101B1000072023AE072023A0072223A2072223AAFF
:101B2000075023AC075023A80768B7C70300BA972C
:101B3000050690C394C3D4C394C723A6070023AA61
:101B4000070023AE07001307F00298D31307F00332
:101B5000D8D323A4070223A6070223A8070223AA97
:101B6000C70323AC0702D4DF23A0070423A2070482
:101B7000B9476FF00FFB976700009387272B9C6393
:101B80000567BA97094723ACE780976700009387FA
:101B9000672A9C631167BA9723A00700054798C37B
:101BA000BD476FF00FF897670000938727289C6365
:101BB00005679146BA9723A2D78A094723ACE786DF
:101BC0001307C00723A2E78A1306800723A2C78A48
:101BD00023A2C78A23A2E78A23A2D78A1306400634
:101BE00023A2C78A1307600623A2E78A930570061B
:101BF00023A2B78A23A2E78A23A2B78A23A2E78A6D
:101C000023A2C78A23A2D78A7D4723AEE7887D57C0
:101C100023A8E78823A8078823AE078823A8E78896
:101C200023A807881306F00323A0C78A23A0078AE6
:101C3000994523A6B78C23A6E788BD4523A8B78876
:101C400023A6078823A8078823A6D78C23A6E7887E
:101C500023A8B78823A6078823A8078823A6078C6C
:101C600023A0C78A23A0078A23AC0786C1476FF049
:101C70004FEB97F7DDE79387A72E98439767000010
:101C80009387C71A9C638566B69723A8E78CC167BC
:101C9000FD1717F7DDE72323F72CC5476FF06FE833
:101CA00097F7DDE723A80728976700009387071AAF
:101CB0008C63976700009387671788631166856751
:101CC000130F068082F082F482F882FC014381487F
:101CD0008D460147856E0D063E95A14F130E0032CD
:101CE0009B17B700BB87D7011B18870013780870B4
:101CF000B3F7E701B3E70701812733E8C70023A063
:101D0000050393E737009CD123A005038327C58AE9
:101D100093C6F6FF9BD7C7008D8BFD8E99CA93762D
:101D200077008A060001A29603A806FE052823A0D4
:101D300006FF13080106814281468323080063F5EC
:101D40007200B6889E82054385261108E397F6FF48
:101D500005279B860700E315C7F96306030097F77D
:101D6000DDE723A9171DC9476FF0AFDB97F7DDE764
:101D70009387471C9C431167930607809B846700E9
:101D8000A1279B9484009B97B700F58F93F4047070
:101D9000DD8C976700009387670B83B90700812468
:101DA00093073700C58F23A0F90213E7340023A05F
:101DB000E90223A0F9029767000093872707806351
:101DC000056B832A443003294418229B9B870A0011
:101DD0003EE89B57C9003ECE8547232CFB8613095E
:101DE0000008930A100893070008BB8727412322A5
:101DF000F4642326F464371CFCFF85473EE4930714
:101E0000FCFF568D814D954B3EF0930710086314EF
:101E1000FD00130D0008370A023E23200A001305B7
:101E2000C012EFF08F868327441802771305C01283
:101E30008127F98F1B97CB00D98F37070400D98FE3
:101E400081272322F418EFF04F8485472320FA00DE
:101E50001305C012EFF06F83514A930A0008014C3A
:101E6000B70C180023240B8823280B8823289B8970
:101E700023280B8823249B8923280B8823289B89CC
:101E800023280B881305C012EFF02F80BD4E0143AD
:101E9000814723200B8823209B8923200B8813054F
:101EA000C0123EFC76F81AF4EFE03FFE0326CB8A20
:101EB000E27722731B5686000D8AC27E9DC33B05C6
:101EC000F3402147637BA7323E8663F38701628636
:101ED0001B0C06003E8663F3FA0056869B0A06003A
:101EE00019A893C7FEFFF18F63930732B28E0523C3
:101EF000E36123FBF1FB7D3AE3160AF6A547BB0835
:101F00005C4163E3570102E4954763E7173163726D
:101F10005D31BB87AA4115466368F6009B961D009C
:101F200093E616009B8D060093F73D000D466388EF
:101F3000C72E852BF9471B8D0A00E398FBEC930B0A
:101F40000008A26791E76D3993072006E31DF9E8C1
:101F5000B707023E23A007001305C012EFE0FFF20F
:101F6000B717FCFF1387F7FF832744189306000871
:101F70008127F98F6397DB2A37070500D98F232242
:101F8000F4181305C012EFE05FF0B707023E0547F3
:101F90003795040098C31305053EEFE01FEF97F750
:101FA000DDE79387E7FA83AC070097E7DDE79387E0
:101FB000670A9C47BBF7FC02A1E317E7DDE703478D
:101FC00067048D4763F6E70097E7DDE7238C070298
:101FD00097E7DDE783C70703852717470000130747
:101FE000675C3E970347370297E6DDE7238CF600F0
:101FF00097F7DDE7A38CE7F48D47BBF7FC02116D83
:10200000056BA14D229B954C3EE493073D003EF0AD
:102010009B872D002326F4642322B4658D47232C4F
:10202000FB8682E082E482E882EC82F082F482F82D
:1020300082FC014D814A3709180023240B8823288C
:102040000B8823282B8923280B8823242B890277AC
:102050009B972A0023280B88F18B23282B89C58F77
:102060005D8F23280B8823A0E90293E7370023A084
:10207000F90223A0E90213054006EFE01FE1014742
:10208000814B014C3D4F954E23200B8823202B89FB
:1020900023200B881305C0123AFC76F87AF4EFE09F
:1020A000DFDE8326CB8A8325CB8A227F9BD68600E0
:1020B0008D8ABD89C27E6277914FA142630F0C1653
:1020C000E38B0B3EBB078741014563F6F2003B05FE
:1020D000774133B5A200BB0777416394F717638359
:1020E000BE00814BDE87AA8BE31A0C3C134CFFFF2A
:1020F000337CDC0063190C14368F93FB1B0005271F
:1021000063960B009336070863960612636F8D1370
:10211000630C0C0091CB1D476368570113972A008D
:10212000140136972320F7FE850AC147E397FAF09A
:1021300097E7DDE7938787F303AF8700F155F14712
:1021400098103E9714431307F00F6364DD003B07BC
:10215000DD409400BE9698C2F117E393B7FE880065
:102160009D46A147930EF00F21479305F00F214E96
:102170001308F00FFD52832FC50163F60F039B87F1
:10218000160013F77700100193172700B29783A565
:1021900007FC9B8726009D8B139827003298832E7F
:1021A00008FC368E7E88FD367115E39656FC97E660
:1021B000DDE7938626E794462266638BC60017E721
:1021C000DDE71307A7E718476313C7083E87F685BF
:1021D0009306F00F85476384D500B337ED01A14620
:1021E000631AD706E38607E29307E00F63E5B70DAE
:1021F0001B865D00BB0DA60121BD1147E319E5CE8D
:1022000013C5FEFF718DE31405CE8147C5B19A87D2
:10221000F9B9BB075D4101B39B9D1D0031B3EA8A4B
:102220000DB39B9BCB00B3E7770137070400D98F31
:102230008127B1B3AE8EBE8B81BDE3860B260145EF
:1022400059BDF68545B53A8C4DBD628DE1B57287B5
:10225000C285BDBFD1FB97F7DDE783C737CFB99FF5
:102260009B972700F18BDD8C91678D07C58F23A08D
:10227000F90293E4340023A0990223A0F9028567B0
:10228000A29723A4078823A807883707180023A844
:10229000E78823A8078823A4E78823A8078823A81A
:1022A000E78823A80788639A45098567A29723A42E
:1022B000078823AC0786B704023E1305C01223A08B
:1022C0000400EFE09FBC7247832744181305C01237
:1022D0001B19C70037F703003379E9003717FCFFF4
:1022E0007D178127F98F3369F900B7070400336937
:1022F000F90023222419EFE05FB985479CC013053C
:10230000C012EFE09FB8C2672322F430CD4717F721
:10231000DDE72327F7C297F7DDE7938727C49C43C0
:102320001B84F7FF17F7DDE7232A87C293076003B3
:1023300019E06FE0BFF26FF02F8E23A0078823A073
:10234000E78823A00788052AB9BF9767000093870D
:10235000E7AD986385678946BA9723A6D78023207F
:10236000076A23AC0780976700009387A7AC9C633C
:10237000416785463386E7002328060434CA116680
:10238000B29723AC07027D1794DF97F7DDE723A709
:10239000E7BCD1476FE0FFF817670000130787A974
:1023A0001863C1673E97585B058B19CB5547FD17DE
:1023B00097F6DDE723A6E6B817F7DDE72320F7BA9F
:1023C00097F7DDE7938787B99C431B84F7FF17F7DF
:1023D000DDE7232587B89307A00319E06FE01FE826
:1023E0006FF08F8397670000938747A49C6305670E
:1023F000BA9783A74781858B81CFC167FD1717F7F0
:10240000DDE7232DF7B4D94717F7DDE7232AF7B225
:1024100097F7DDE7938787B49C431B84F7FF17F793
:10242000DDE7232D87B29307500319E06FE01FE328
:102430006FE09FFEDD4717F7DDE72323F7B0B7070F
:102440001000F91717F7DDE7232AF7B06FE0DFFC7C
:10245000976700009387879D9C630567BA9783A75A
:102460004781918B89CFB7071000FD1717F7DDE77C
:102470002326F7AEE14717F7DDE72323F7AC97F7FD
:10248000DDE79387A7AD9C431B84F7FF17F7DDE7D4
:10249000232687AC9307300319E06FE03FDC6FE041
:1024A000BFF7976700009387679817F7DDE7130773
:1024B00067A99C63184323A2E718094723A6E738B6
:1024C0000567BA9783A74781A18B81CFC167FD17A5
:1024D00017F7DDE72324F7A8E54717F7DDE7232102
:1024E000F7A697F7DDE7938767A79C431B84F7FF61
:1024F00017F7DDE7232487A69307200319E06FE091
:10250000FFD56FE07FF197670000938727929C6368
:102510000567BA9783A74781C18B81CFC167FD1734
:1025200017F7DDE7232CF7A2E94717F7DDE72329A3
:10253000F7A097F7DDE7938767A29C431B84F7FF1B
:1025400017F7DDE7232C87A09307100319E06FE04E
:10255000FFD06FE07FEC976700009387A78D9C63A7
:102560004167BA9703AA8703137A1A0063080A100F
:102570000144014B976A0000938A4A8B8569214C7C
:10258000914C854B094D2945EFE03F9003B90A0076
:102590002945B304390123A46481EFE01F8F83A789
:1025A000448683A7448683A7448683A7448683A75B
:1025B000848683A7848683A7848683A7848683A74B
:1025C000C481294581275D8CEFE03F8C83A744833C
:1025D000812763858701136414000124B30739013F
:1025E00083A70785812763E4FC0013641400B30705
:1025F000390103A7078283A6478281470D8B93F693
:10260000F60F89E6D28719E313641400B306390183
:1026100083A646829BD6860093F6F60F91E6852721
:102620006314770113641400B306390183A646824C
:102630009BD6060193F6F60F91E685276314A70152
:10264000136414004E99832649829BD6860199E62D
:102650008D4685276314D7001364140063F4FB00D0
:1026600013641400052B9547E31FFBF0ED4719E0B9
:102670006FE0DFBE930700036FE0BFCA9307F0026D
:102680006FE03FCA975700009387477A9863AD671A
:102690009387A7A25CC3F1476FE0BFC897570000BC
:1026A0009387C7789C6397F9DDE79389E989056982
:1026B00083A609003E993EE4A147232CF986639B3B
:1026C0000616456A1707DEE7232A0714232CF98626
:1026D000814C1B0A1A11054B954B970ADEE7938A2A
:1026E000EA13BB874C03054D194C232EF98A9B0D29
:1026F000FDFFBB1DBB0193F4FD0F014681452685FF
:10270000EFE0FF9C9B06050063980614014689458F
:10271000268536E8EFE02FF99B0605002A8401465E
:1027200081452685EFE0BF9A498C1374F40FA28689
:10273000014685452685EFE09F99498C1374F40F77
:10274000A286014689452685EFE07F98498C13745F
:10275000F40FA28601468D452685EFE05F97498CF0
:102760001374F40FA286014691452685EFE03F964B
:10277000498C1374F40FA286014695452685EFE037
:102780001F95498C1374F40FA28601469D4526853A
:10279000EFE0FF93498C1374F40FA2860146A14524
:1027A0002685EFE0DF92498C1374F40F9B0604003A
:1027B00045E483A60A00C26733F6B601012601EE9E
:1027C00013162D00569623209601B3EDB601170778
:1027D000DEE72325B70583A50A000146BB16CB001B
:1027E000ED8E8126ADCA0526E31A76FF1707DEE7D0
:1027F000232207041706DEE7130646028146D14569
:10280000584211063B17D700D98F91068127E399CB
:10281000B6FEA2661707DEE7232EF7000567B38A28
:10282000E600214723ACEA8623AEFA8A97E7DDE784
:1028300023AC077003A40900F94719E06FE01FA259
:1028400089476311F40497E7DDE723AF076E930729
:10285000C0036FE01FAD8546050DE31A8DE9852C99
:10286000BD47E390FCE897E7DDE723AFD76C97E738
:10287000DDE79387676C9C43852717E7DDE7232D0A
:10288000F76A4DBF97E7DDE723A0076CF5476FE0D8
:102890005FA91306000881451705DEE7130505F853
:1028A000EFD07FE1975700009387C7589C6341673B
:1028B0008D46BA9798471B06170063F6C600930724
:1028C00090036FE01FA690C7F9B3FD476FE07FA5A7
:1028D00097E7DDE79387476780439307000219E096
:1028E0006FE0DF97ADB797E7DDE79387E765944340
:1028F000014681453D45EFE08FFD014689453D4557
:10290000EFE06FDA9B0605002A84014681453D45CC
:10291000EFE0EFFB498C1374F40FA2860146854566
:102920003D45EFE0CFFA498C1374F40FA2860146BF
:1029300089453D45EFE0AFF9498C1374F40FA28649
:1029400001468D453D45EFE08FF8498C1374F40F37
:10295000A286014691453D45EFE06FF7498C13741F
:10296000F40FA286014695453D45EFE04FF6498CB0
:102970001374F40FA28601469D453D45EFE02FF507
:10298000498C1374F40FA2860146A1453D45EFE042
:102990000FF4498C1374F40FA286054681453D451A
:1029A000EFE0EFF2498C1374F40FA28605468545DB
:1029B0003D45EFE0CFF1498C1374F40FA286054634
:1029C00089453D45EFE0AFF0498C1374F40FA286C2
:1029D00005468D453D45EFE08FEF498C1374F40FAC
:1029E000A286054691453D45EFE06FEE498C137494
:1029F000F40FA286054695453D45EFE04FED498C25
:102A00001374F40FA28605469D453D45EFE02FEC7B
:102A1000498C1374F40FA2860546A1453D45EFE0AD
:102A20000FEB418D1375F50F97E7DDE723AEA75048
:102A30009307100219E16FE0DF8E85476FE07F8E0C
:102A40000D451306F003B70502007A05EF00C054E8
:102A50001B04050097E7DDE723A8874E93072002B4
:102A600019E06FE0AFFF930770036FE09F8B97E76C
:102A7000DDE79387674D80439307300219E06FE0ED
:102A8000EFFD930780036FE0DF8985471397F70118
:102A9000BAF037070002BAF482D83147230AE106B8
:102AA000230BF106A30A0106930740026FE07F871C
:102AB0008810EF00E05797E7DDE79387E74880430A
:102AC0009307500219E06FE06FF985BF8C10054540
:102AD000EF00806497E7DDE723A8A7468C10054543
:102AE000EF00806317E4DDE7130404461C408C10FC
:102AF0005D8D97E7DDE723A9A7440545EF00C06199
:102B00000040498C012497E7DDE723AF87421DE8A9
:102B100083475107852793F7F70FA30AF106034769
:102B2000610763FDE70083474107852793F7F70FA8
:102B3000230AF106930740026FE04FF29307600209
:102B40006FE0CFF197E7DDE783C74740854617E79A
:102B5000DDE71307674063E1F606852797E6DDE7C3
:102B60002386F63E1C4391461B861700B28763E31B
:102B7000C60497E6DDE723A1F63E9757000093874A
:102B8000E72A9C6318431D651305055323ACE768CA
:102B90000567BA97054723ACE7861307E00323A030
:102BA000E78A23A0078A214723ACE786EFE0EFAD51
:102BB0006FE09F86894775BF97E7DDE72388073871
:102BC000894717E6DDE72329F63897E7DDE723A9EC
:102BD000D73665B797E7DDE79387073780439307D5
:102BE000700219E06FE08FE789BD97E7DDE7938713
:102BF000A73580439307800219E06FE02FE635BDCB
:102C000097E7DDE79387473480439307900219E005
:102C10006FE0CFE41DB597E7DDE79387E7328043A8
:102C20009307A00219E06FE06FE301BD9307B002C4
:102C30006FE02FEF9307D0026FE0AFEE95478A1752
:102C4000BEF085471397F701BAF4BED88810230A5F
:102C50000106EF00E03D9307C0026FE08FECF32721
:102C600000C097E6DDE79386E62F9462958FB7263E
:102C700009009386067CB3D7D7029706DEE723B711
:102C8000F6B897E7DDE79387272B9C4399E705453F
:102C9000EFE0CFC4EFE02FCA01471364170093079A
:102CA000E0026FE0AFDB814763829EC5639095C50C
:102CB000BA876FF0AFC38147639E9E013B05874192
:102CC000631DF5C31345FFFF758D631805C2014CE5
:102CD0006FF08FC2E39495FFBA87CDB75971A2F018
:102CE000A6EC62F066EC86F4CAE8CEE4D2E056FCCC
:102CF0005AF85EF46AE86EE4A147AA842E8C328406
:102D0000B68C630DF60663EFC70489470545630774
:102D1000F600914779556303F60001457D5A854BCE
:102D2000A6890149894A135A0A02214B974D00008E
:102D3000938DCD8E174700001307C78E139DFB019F
:102D400063178905A6700674E6644669A669066A73
:102D5000E27A427BA27B027CE26C426DA26D01456D
:102D600065618280C147630EF60093070002E31697
:102D7000F6FA974700009387678A01A8EF20B044CE
:102D800071BF974700009387E789886341BF6395C8
:102D90005C0323A0A900910933754501630C640508
:102DA000636F8B00630A54039147630BF402631350
:102DB00074010505052969B788E0A104C5B7930723
:102DC00000026300F40493070004630FF402C14798
:102DD000E312F4FE0863F9BF630AA5030605D9BF31
:102DE0009347F5FF05456384A70113951700134525
:102DF000F5FFC9B7EF20303D174700001307878262
:102E000055BF03B50D007DB701456DB705455DB7ED
:102E10001971A6F4CAF0CEECD2E886FCA2F8D6E48A
:102E2000DAE05EFC62F866F46AF06EECA1472A898B
:102E3000AE89B284368A630EF60263E0C702894720
:102E40000544630FF60291477954630BF60293072A
:102E500040036384F408014425A0C1476309F606D2
:102E600093070002E315F6FE973700009387077B70
:102E70009DA0EF2050352330A9002A842320A900EB
:102E8000FD5B370C1000854CCA874A85814A014B8F
:102E900093DB0B02711C973D0000938D2D789736C4
:102EA000000093862678139DFC0163133B05E670B2
:102EB00046745685A6740679E669466AA66A066B64
:102EC000E27B427CA27C027DE26D096182809737C1
:102ED000000093872775806365B7F32700C0938749
:102EE000C7123EE4732700C0A267E36DF7FEA5B7E3
:102EF0000947631DEA0203E70700337474013AE0EF
:102F0000026763038700852A214721059107638CA7
:102F1000E404636F970009476389E4021147638AF9
:102F2000E402639394010504052B41B71861C1BF06
:102F300013070002638BE40413070004638AE404AC
:102F40004147E393E4FE8062C5B76305A405060428
:102F5000E1BF1347F4FF05446304A70113141700EE
:102F60001344F4FFD1B7EF2010262A84EF20B025B8
:102F700033758501021575814A9500E100C1AA8764
:102F8000973600009386066A45B703B40D0069BF03
:102F9000014459BF054449BF5D714EF852F456F0E3
:102FA0005AEC5EE862E466E086E4A2E04AFC2A8A23
:102FB000AE8A328C8149014B854C9D4BBB973C01BD
:102FC0001B890700B377FC008127B9C31379F90F78
:102FD0008D464A86D6855285EFF05FD01B040500EA
:102FE0008D464A86D6855285EFF09FE2299C894618
:102FF0004A86D6855285EFF07FCE3B046401299C3A
:1030000089464A86D6855285EFF09FE03B0B8500C6
:103010008529E39579FBA66006645A856279C279B1
:10302000227A827A626BC26B226C826C61618280CE
:10303000397126F404611C494AF006FC22F84EEC72
:1030400052E856E45AE081272A89BDC313040010D0
:10305000973900009389895D83474901194B973A55
:103060000000938AAA591D9C02140190833709001D
:1030700003378900338A8400BA976363FA043705FB
:103080000003EFD00FE237150003EFD08FE13725B3
:103090000003EFD00FE14274E270A2740279E2699A
:1030A000426AA26A026B3735000321616FD06FDF7D
:1030B0000564130404C0973900009389296769BF28
:1030C00093F77400FD176367FB008A07D6979C434C
:1030D000D697828737050003EFD0AFDCB706000331
:1030E00026852286CE85EFD02FD8D28441B73715DA
:1030F0000003EFD00FDBB7160003DDB73725000361
:10310000EFD02FDAB7260003E1BF37350003EFD049
:103110004FD9B7360003E9B71D71A2E805448567AA
:10312000A6E45AF095447E04096BCAE04EFC52F8BE
:1031300056F45EEC62E866E46AE086EC2A8CAE8CBB
:10314000814A81498A14138947BF138A877EA28BDB
:10315000130B0B7117FDDDE7130D4D7463FB8A072D
:10316000B70600034A86A28517E5DDE7130585E368
:10317000EFD08FCF4A86A685B716000317F5DDE797
:103180001305C5A1EFD04FCE37050003EFD06FD1A7
:1031900037150003EFD0EFD04A8697F5DDE793852A
:1031A000E59F17E5DDE71305E5DFEF20406F21E937
:1031B00083B78C0033074401DE97637BF7024A94A0
:1031C000CA948529E37C3BF903370D0089476316D0
:1031D000F7020145E6604664A6640669E279427A30
:1031E000A27A027BE26B426CA26C026D2561828046
:1031F0009544852A8A145E84E9B7814985B70545D7
:10320000D1BF411122E037240020714697D5DDE778
:10321000938545E71305042006E4EFD0AFCD714652
:1032200097D5DDE7938505EB13054423EFD08FCCCD
:10323000130544251306000397D5DDE7938585E63E
:10324000EFD04FCB97570000938747BF9C63B716CB
:103250000800938676903717040023A2D71C130723
:10326000D7A023A4E71CA260026423A2D71C23A436
:10327000E71C014541018280B7270020E8CB82800E
:103280004111F32700C09387C7123EE4732700C0A3
:10329000A267E36DF7FE41018280011106EC22E88E
:1032A00026E44AE0EF00C00EB7A70800370708374A
:1032B000938707081CC7B7270020054723ACE708FA
:1032C000B7273F0037770020938707F01CC7130705
:1032D000F047B787002023AEE7C0EFF09FF2856488
:1032E00037340020938704F0232EF41A938404804B
:1032F0002A89EFF0FFF8232E941AEFF07FF8896700
:1033000093870780232EF41AEFF09FF79167938736
:103310000780232EF41AEF004030EF00E017E26040
:1033200042644A85A264026905618280828001113B
:1033300001454AE006EC22E826E4EFD01FE31B0932
:103340000500732400C0B7879303938707703E94EA
:10335000BE84CA8713791900630D0900E2604264D4
:1033600013F527003335A000A26402690A05056140
:1033700082800545EFD07FDF1B090500F32700C0E1
:10338000E3E987FCEFF09FFA732400C02694D1B7DD
:10339000B7270020D847C176FD160127758FD8C7FB
:1033A0001307D007D8C7D847C1660127558FD8C79C
:1033B00082808547630CF500B707203E95460D6770
:1033C00094C7130707C398CBD4C38280B707203EA6
:1033D00088C3828082808546630CD504B707013E8E
:1033E0000D4798C3370700011306E703D0C3130640
:1033F000001090C7370600021306061090CB130684
:103400000710D0CB05661306060290CF37D6F71308
:10341000D4C7130606ECD0D323A407025546D0D751
:1034200094DB91668D0694D31307F703D8C382808B
:10343000975700009387879F9C6337070001930687
:10344000F70323A2D7089306001023A4D708B706D2
:1034500000029386061023A8D7081307071023AA93
:10346000E70805671307070223ACE70815670D0790
:1034700023A0E70A554723A6E70AB707013E0D47F1
:1034800098C38280B707013EC84301251B5595416B
:103490001345150005898280797106F422F026EC27
:1034A0004AE8EFD0EF880D47B707013E98C3B7173A
:1034B000003E98C33707000193066702D4C3930602
:1034C000005094C71307071098CB3707004B13071A
:1034D0000710D8CB05671307070298CF23A607006C
:1034E00023A2070223A4070213070006D8D7054723
:1034F00098DB11670D0798D3B727003E13075015C7
:1035000098C70D67130707C3B706203E98CA13076D
:103510008020D8C323AA070023AC070023AE0700EE
:1035200002C41307700CA24781276371F706B7071F
:103530000001938677023717003EFD1754C33EC241
:103540003719003EB70400023E84832749008127D3
:10355000E58FA9C3B7070540372700209507232C1F
:10356000F70A0F00F00F02C68327870B93F70704B3
:103570008DCF9307400202741CC7A270E2644269B7
:10358000B727003E0D47D8C7456119B5A247852723
:103590003EC451BF9247812789C79247FD373EC23B
:1035A0006DB722C2EFF01FE34DB7B24785273EC685
:1035B00065BF97570000938767879C6305678546BB
:1035C000BA971307101023A0E7C037F7800823A08D
:1035D000D7C01307C72023A2E7C03707FE0009079B
:1035E00023A6E7C023A8E7C009671307870C23AA0F
:1035F000E7C0375700F01307C70C23ACE7C0370705
:1036000000FF23A2E7C2370714801307171023A473
:10361000E7C0B707103E94C38280411106E4EFF083
:103620005FF90545EFF0FFD8A260014541018280B6
:10363000974700009387877F9863411102C68327CD
:103640008720C18BADC702C6B946B247812763F454
:10365000F6069947232EF720974700009387877E29
:103660009C63854694C323A0070002C69447918AB1
:10367000B9C683268720918AB9C603264720F176EA
:103680009385F6FF01266D8E2322C720D443116651
:103690008126ED8ED4C3832647208126D18E232216
:1036A000D720D8430127518FD8C341018280B24728
:1036B00085273EC669B7B24785273EC679B7B24669
:1036C000852636C665B7B246852636C65DB7174528
:1036D00000001305A5C597450000938525CA174628
:1036E0000000130626C7014737087001954814618A
:1036F0009B070700B207C29794EB94612105A105CF
:1037000094EF1462210694F79316C700C29623B073
:10371000060023B0070223B406000507E31917FDCE
:10372000014582808280154793170702797193863D
:10373000470695073EE8854706F436E43ACC3EC294
:10374000732740F1141093172700B69783A687FEBE
:103750009307803E93153700BB87D70297F6DDE7C6
:1037600093864603AE961B860700821781939CE2E0
:1037700015C6B7C6000283B686FFB69785669386E0
:10378000068036970E07B706000236971CE39307AC
:103790000008F3A74730EF00A06C02C21245A270E8
:1037A000012545618280011106ECF32740F13EE4DA
:1037B00093070008F3B74730A2671147636CF70619
:1037C00017470000130707BE8A07BA979C43BA97AA
:1037D0008287EF00600DB7C7000283B687FF2267BC
:1037E000F32740F11316370017F7DDE7130787FAC1
:1037F00032971863BA96056713070780BA978E0742
:1038000037070002BA9794E393070008F3A74730FD
:10381000E26005618280EF00400975BFEF0000099A
:103820005DBFEF00C00845BFEF0080086DB792474D
:1038300085273EC2A267E5FF79BF011106ECF32799
:1038400040F13EE4A2671147636CF704174700009C
:10385000130787B68A07BA979C43BA978287EF0007
:103860008004F32740F113972700B7070002BA97A7
:1038700023A007009C43E26081273EC29247056176
:103880008280EF109030F1BFEF10F028D9BFEF1019
:103890005021C1BFEF10B019E9B7824785273EC05C
:1038A000A267E5FF7DBF82808280828082808280E5
:1038B00082800145828001458280014582800145E8
:1038C00082800145828001458280014582800145D8
:1038D00082800145828001458280014582800145C8
:1038E00082800145828001458280014582800145B8
:103C1000FDBFF5BFEDBFE5BF8280828082808280DC
:103C20008280828082808280828082808280828084
:103C30008280828082808280828082808280828074
:103C40008280828082808280828082808280828064
:103C50008280828082808280828082808280828054
:103C600041111306000897350000938525783755D4
:103C7000002006E422E037540020EFC01FA91306FD
:103C80000008973500009385657E13050410EFC08A
:103C9000DFA71306000497450000938525851305CB
:103CA0000420EFC09FA613060002973500009385FD
:103CB000E57113050430EFC05FA5130600049745B6
:103CC00000009385A58613050440EFC01FA41306CA
:103CD0000004974500009385658913050450EFC0E3
:103CE000DFA2130600029745000093852593130574
:103CF0000460EFC09FA11306000297450000938562
:103D0000E58A13050470EFC05FA037640020130636
:103D10000004974500009385658B13050480EFC070
:103D2000DF9E130504904146974500009385058E5C
:103D3000EFC0BF9DA260026401454101828002156F
:103D40009357C501174500001305458F3E955C4507
:103D5000854613C7F7FF6312D602B726002003A6D5
:103D600046080126718F23A2E60803A786080127CB
:103D7000D98F23A4F60801458280B726002003A628
:103D800046080126D18F23A2F60883A7860881273B
:103D90007D8F23A4E608C5B7B726002083A7860831
:103DA00001777D178127F98F23A4F6088280B72732
:103DB000002023A0A70882807350003A7350203A55
:103DC00093070009B307F50217450000130585ADF9
:103DD0003E951C697390073B1C6D7390173B1C71DB
:103DE0007390273B1C757390373B1C797390473B4E
:103DF0001C7D7390573B3C617390673B3C657390AF
:103E0000773B3C697390873B3C6D7390973B3C716B
:103E10007390A73B3C757390B73B3C797390C73B5D
:103E20003C7D7390D73B5C617390E73B5C6573901E
:103E3000F73B1C617390073A01458280F3770430A9
:103E400093070008F3B707308280411106E4EFF0D2
:103E5000FFFE7350403073504034A26041018280B5
:103E6000F36704308280011106EC732500302AE4E8
:103E7000EFF0DFFCE260226505618280731005309F
:103E8000828097F7DDE79387E7BF6312F518B707DE
:103E900000201CE197D7DDE79387470D9C43F99BF2
:103EA00017D7DDE72324F70C1C6193960502819256
:103EB000238207002384070003C7870013672700B6
:103EC0002384E70003C78700136747002384E700C4
:103ED00003C78700136717002384E70003C70701A0
:103EE0001377F70E2388E70003C707011377F70D51
:103EF0002388E70003C747031377D70F238AE70216
:103F000003C747031377E70F238AE70203C7870333
:103F10001377D70F238CE70203C707031377F70D37
:103F20002388E70203C707031377F70B2388E70209
:103F300003C707031377F7072388E70203C787033D
:103F40001377770F238CE70237978647130707C04D
:103F5000B356D70223820704238407042386070469
:103F60000CC53707800063F4E6061B8706009B58E4
:103F700077001B58F700130EF00F1378F80F13F3A8
:103F8000F80F637EDE1A9B5617009B986800BB886B
:103F9000164183C6C7001377F7073B07174193E61F
:103FA00006082386D700238207012380670083C683
:103FB000C7001377F70F93F6F6072386D70083C65B
:103FC000070393E606082388D702238EE702238699
:103FD000C7000CC52306C50023380500233C050097
:103FE000233005022334050223380502233C050251
:103FF000233005042334050423380504233C050439
:104000002330050623040506A3060500828097F7E2
:10401000DDE7938727C5631CF500B70710201CE177
:1040200097D7DDE7938787F49C43F59B95BD97F77A
:10403000DDE79387A78E631CF500B72710201CE1EE
:1040400097D7DDE7938787F29C43ED9B91BD97F768
:10405000DDE7938727B2631CF500B74710201CE10A
:1040600097D7DDE7938787F09C43DD9B15BD97F7D6
:10407000DDE79387A7A8631CF500B76710201CE154
:1040800097D7DDE7938787EE9C43BD9B11BD97F7DC
:10409000DDE79387A7B5631DF500B70700281CE18E
:1040A00097D7DDE7938787EC9C4393E71700CDBB59
:1040B00097F7DDE79387078E631DF500B707102894
:1040C0001CE197D7DDE7938767EA9C4393E72700D6
:1040D000C1BB97F7DDE793876793631DF500B727AB
:1040E00010281CE197D7DDE7938747E89C4393E7C7
:1040F00047007DB397F7DDE7938747BE631DF50063
:10410000B74710281CE197D7DDE7938727E69C4344
:1041100093E7870071B397E7DDE79387A778E31507
:10412000F5D8B767102817E7DDE7233DF77697D76F
:10413000DDE79387A7E39C4393E7070195B303C7A4
:10414000C700136707082386E7002382070123803F
:10415000670003C7C7001377F7072386E70003C785
:1041600007031377F7072388E70295B51861B1466F
:1041700083478700BD8B63E1F60A9746000093866C
:10418000669F8A07B6979C43B69782870333850359
:1041900063040308028303330503DDBF0333850291
:1041A000C5BF03330502EDB7411122E006E48347A2
:1041B00087022A84858B81C73C6191C382971C60EA
:1041C00083C78702898B89C73C6499C322858297FC
:1041D0001C6083C78702918B89C73C6899C322857D
:1041E00082971C6083C78702A18B89C73C6C99C3E7
:1041F000228582971C6083C78702C18B91CB0333D2
:1042000004066307030022850264A260410159B7D6
:10421000A260026441018280828083380501638C40
:104220000802104D0DCA18618346D5008347470127
:1042300093F7F70FDD8EA306D50093F7070289EFFA
:104240005C4D639AC70083474700232C050093F712
:10425000D70F2302F70082805C4DBD46BB07F640B6
:1042600063F3F600C1478145544DE38BF5FC139889
:10427000060213580802469803480800852685253B
:104280002300070154CDCDB7411122E006E42A8472
:10429000EFF03FBF1C6003C707031377770F238836
:1042A000E70203C747031377B70F238AE70203C761
:1042B00087031377E70F238CE702970700009387A4
:1042C00007F61CF8A260026441018280B1C529C6CC
:1042D000033805008147BD488346D50003474801A0
:1042E0001377F70FD98E137707026DDBA306D5007E
:1042F000414763E3C80032873B83E7009396070298
:104300008192AE9683C6060085272300D800E397E6
:1043100067FE199E812769F28280A9C983C60500BC
:1043200001473A8699A0833805000347D50083C723
:10433000480193F7F70F5D8F93F70702EDDB1B083A
:104340000601A306E5001B03080032879B07170040
:104350001B870700821781932380D800AE9783C6FE
:104360000700E1D21A86E31307FFD5FE82802A8771
:10437000B1C505C21C618346D50083C7470193F7C9
:10438000F70FDD8EA306D5008146858B95CB639410
:10439000C600328582801C6303C50700B387D50041
:1043A00085062380A7001C630345D70083C7470108
:1043B00093F7F70F5D8DA306A700C1BF0146D1BFDC
:1043C0003686C1BF97D7DDE7938747BA9C43411133
:1043D00006E4858B17F5DDE71305458189E717E5C9
:1043E000DDE71305256AEFF07FD8A26001454101A2
:1043F000828097D7DDE7938767B79C43411106E436
:10440000898B17E5DDE71305E55889E717F5DDE743
:1044100013054585EFF09FD5A260014541018280DB
:1044200097D7DDE7938787B49C43411106E4918BCE
:1044300017E5DDE71305855D89E717E5DDE713057A
:10444000E54DEFF0BFD2A26001454101828097D7D0
:10445000DDE79387A7B19C43411106E4A18B17F5D3
:10446000DDE71305A58789E717E5DDE71305857007
:10447000EFF0DFCFA26001454101828097D7DDE7F1
:104480009387C7AE9C43411106E4C18B17E5DDE776
:104490001305454189E717E5DDE713052566EFF0CC
:1044A000FFCCA26001454101828097D7DDE7938769
:1044B000E7AB9C4317E5DDE713054573858B89E77B
:1044C00017E5DDE71305055C55B197D7DDE7938761
:1044D000E7A99C4317E5DDE71305C54B898B89E701
:1044E00017E5DDE71305057851B197D7DDE7938729
:1044F000E7A79C4317E5DDE713054551918B89E755
:1045000017E5DDE71305854195B197D7DDE793877B
:10451000E7A59C4317E5DDE71305457CA18B89E7FB
:1045200017E5DDE71305056591B197D7DDE79387BB
:10453000E7A39C4317E5DDE71305C536C18B89E783
:1045400017E5DDE71305855B15B1F32740F111474A
:10455000636EF70897360000938606658A07B6975C
:1045600098439B575500821736977D89F9830287B8
:104570003727000CBA97984385463B95A600598D7E
:10458000012588C382803727000CBA9703A7070844
:1045900085463B95A600598D012523A0A70882805A
:1045A0003727000CBA9703A7071885463B95A60046
:1045B000598D012523A0A71882803727000CBA97B0
:1045C00003A7072885463B95A600598D012523A002
:1045D000A72882803727000CBA9703A7073885469B
:1045E0003B95A600598D012523A0A7388280F3278B
:1045F00040F11147636CF708173700001307075C99
:104600008A07BA9794439B5755008217BA96F98345
:104610003727000C7D89BA978286904385463B9761
:10462000A6001347F7FF718F012798C3828083A6E6
:10463000070805473B17A7001347F7FF758F0127AA
:1046400023A0E708828083A6071805473B17A70029
:104650001347F7FF758F012723A0E718828083A6F1
:10466000072805473B17A7001347F7FF758F01275A
:1046700023A0E728828083A6073805473B17A700B9
:104680001347F7FF758F012723A0E7388280834700
:10469000050881CB186D8347070093E74700230087
:1046A000F70082801C6D797122F006F426EC03C7B6
:1046B0004700930680062A84A307E1000347F10020
:1046C0001377F70F630FD71063E9E60E9306000325
:1046D0006302D73463EDE606E146630AD70463E07C
:1046E000E604A146630DD720C146630AD72003C75D
:1046F00007001377F70D2380E7003C4423040400F0
:10470000232E0404812705476394E70089473CC4AE
:104710003C58054781276390E7228947E5A893061F
:1047200000026309D72E93068002E312D7FC585487
:104730001454637DD7201470131607020192B296A9
:1047400083C6060005272384D70058D4EDA293061C
:1047500080046301D72C63E5E60293068003630EB1
:10476000D71E93060004E314D7F834410547637B52
:10477000D72603C70700136747002380E70065AA11
:10478000930680056305D72A93060006630ED704B7
:1047900093060005E31DD7F403C78700836645042D
:1047A0001C7DB6972380E7007C411B8717003C41A6
:1047B00078C0FD376361F718C9A49306000A630A3D
:1047C000D72E63E5E608930600086302D72A63E55F
:1047D000E604930600076309D70093068007E318F1
:1047E000D7F00547A30CE40811472304E40023266F
:1047F00004062326040003C707001377070211CB22
:1048000003C707001377F70D2380E7008547A30C44
:10481000F40885473CD805A2930600096309D7240C
:10482000930680096306D70093068008E311D7EC4E
:1048300003C70700136747002380E7000347940975
:1048400023040400232804067DC701AA9306800BD5
:10485000630CD70063E4E6069306800A6306D7007C
:104860009306000BE315D7E80347F1009306800A8F
:104870006396E602154785462304E40023260400D8
:1048800034D803C707001377070209CB03C7070013
:104890001377F70D2380E700A30CD408784C304C35
:1048A0006367C72A7D572384E70003C70700137790
:1048B000B70F2380E700232E0404B5A89306800CCD
:1048C000630AD7009306800D6306D7269306000C73
:1048D000E31FD7E0232E040403C707001367470034
:1048E0002380E70003479409232804066301071285
:1048F00003C70700136707022380E70009AA03C75D
:1049000007001377F70D2380E7001858034644008B
:1049100093761700D18E2384D70005E32326040263
:104920008347940999C3A30C04088347A409034748
:104930008400631AF700854491A88547E312F7FEC7
:1049400023220404F1BF2304F400F5B78346840056
:104950000D476399E600054718D803C7070013679A
:10496000070221BD0347040123040400058B230C27
:10497000E40825E703C7070022858544136707017C
:104980002380E700EFF0BFD0232404043C44854695
:1049900081276383D7023C588127638FD7005864EF
:1049A00001CF8347040889EB3C4481276380D71CEF
:1049B0002C448125228502971C6C99C403C70700EB
:1049C0001377770F2380E70083C74700A270027434
:1049D000A307F100E2644561828048488144EFF01A
:1049E0001FC15DB76397E60003C707001377B70FD2
:1049F00069B303C70700136747002380E70003C7B5
:104A00000700136707012380E7002324050423041C
:104A1000040015B703C70700136707012380E700E9
:104A200089473CC423040400EFF07FC629B703C7BD
:104A30008700836645041C7DB6972380E700834783
:104A40000501858B230CF50891EF186D854483478C
:104A5000070093E707012300F700EFF05FC323048B
:104A600004001DB748498144EFF07FB8CDBF3470D2
:104A700095CE70543854636AE600186C834707007B
:104A800093F7B70F2300F7007DB583C787000216A1
:104A9000019213F7F70FB2962380E6007C54852726
:104AA0007CD45C449B978700B99F5CC478543C5489
:104AB00011B38346850011476399E606705578590E
:104AC0006314C700584578CD387C29CB2C7042162A
:104AD000419222850297012505E92285EFF03FBB2F
:104AE000186C8347070093E747002300F7008347CC
:104AF00094092328040681DF186C8347070093E795
:104B000007022300F70021B7186C8347070093F7CB
:104B1000B70F2300F70023000408D1BF03C7070025
:104B2000136747002380E700D9B7232E0504EFF071
:104B30001FB675BF3C5923040500232E05048127A9
:104B400005476394E70089473CD92285F1BD346865
:104B5000931507028191AE9683C606002384D70081
:104B60009B06170074CCE3E8C6DC81B33458812679
:104B7000E384F6E42C5835BD797106F422F026EC76
:104B80004AE84EE42A842E89B284EFF0CFADAA8998
:104B90001306000A81452285EF00D05297E7DDE732
:104BA000938747256310F402B7A710201CEC97C722
:104BB000DDE783C7E73B93E7170017C7DDE7230966
:104BC000F73A15A897E7DDE79387C72C17E7DDE7E6
:104BD000130747366318F40AB7B710201CEC97C7C1
:104BE000DDE783C7E73893E7270097C6DDE7238132
:104BF000F6386318E40C372700209307A0035CC83D
:104C00008327870885668127D58F2324F708832784
:104C10008708FD768127FD16F58F2324F7081C6C85
:104C20009B1519000CC003C707009BD624009B9658
:104C30007600558F1377F70F2380E70083C60700B0
:104C400013F724008588558F2380E70003C70700EA
:104C500093F5E50F13950902D98C238097002386DD
:104C6000B70003C707000191136707042380E7001B
:104C7000233404080274A270E2644269A2694561A7
:104C80006FF0CF9F631CE400B7A710281CEC97C7F8
:104C9000DDE783C7E72D93E7470005B797E7DDE733
:104CA0009387470BE31DF4F6B7B710281CEC97C7A2
:104CB000DDE783C7E72B93E7870017C7DDE7230905
:104CC000F72A372700209307D0035CC8832787087B
:104CD00089668127D58F2324F70883278708F976EB
:104CE000812715BF5D71A2E026FC4AF82A842EECCC
:104CF00032E836E43AE0245986E4EFF0CF96834771
:104D0000840081242A890267A2664266E26581E7FF
:104D100085472304F40085479B951500230DF4086F
:104D20004CC02328040210F014D4232604023CC4EF
:104D30002308E4006391F404A30C94080347840956
:104D40008547631DF7001C6C03C707001377770FB7
:104D50002380E70083C74700A307F1024848EFF02C
:104D6000CFFE066413150902A660E2744279019130
:104D700061616FF0AF90186C8347070093E70702FB
:104D80002300F70065BF1D71CAE00329050786EC03
:104D9000A2E8A6E44EFC52F856F45AF05EEC62E843
:104DA000D5CBCDCABE892A84C28A3A8B368AB28BC9
:104DB000AE84EFF04F8B8347840001292A8C81E772
:104DC0008D472304F4008D47230DF4089B951400B0
:104DD00085474CC023280402233074032324440352
:104DE00023260402233C64032320340523220404E5
:104DF0003CC4230854016317F904A30C2409034796
:104E000084098547631DF7001C6C03C707001377EF
:104E1000770F2380E70083C74700A307F1004848C6
:104E2000EFF0AFF2466413150C02E660A664066963
:104E3000E279427AA27A027BE26B426C01912561AF
:104E40006FF0CF83186C8347070093E707022300B6
:104E5000F70075B7E6604664A6640669E279427AAF
:104E6000A27A027BE26B426C256182806CC50547A9
:104E70003C458127E38EE7FE3E858280411197C73E
:104E8000DDE783C7E70E06E4858B17E5DDE713054D
:104E900065F689E717E5DDE71305C509EFF09F80A3
:104EA000A260014541018280411197C7DDE783C7B8
:104EB000270C06E4898B17E5DDE71305A5FD89E7D7
:104EC00017E5DDE7130505E9EFF0CFFDA260014529
:104ED00041018280F32740F11147636EF70897364E
:104EE00000009386E6CE8A07B69798439B575500F5
:104EF000821736977D89F98302873727000CBA9786
:104F0000984385463B95A600598D012588C382802C
:104F10003727000CBA9703A7070885463B95A600DC
:104F2000598D012523A0A70882803727000CBA9746
:104F300003A7071885463B95A600598D012523A098
:104F4000A71882803727000CBA9703A70728854641
:104F50003B95A600598D012523A0A72882803727DD
:104F6000000CBA9703A7073885463B95A600598DD4
:104F7000012523A0A7388280B70712206306F50019
:104F8000B70712286316F50035478547636AB702ED
:104F9000B71712206306F500B71712286316F5003D
:104FA0005D478547636EB700B72712206307F5009A
:104FB0003727122881476315E500FD47B3B7B700CF
:104FC0003E858280FD572320F5088280797122F08A
:104FD00026EC06F4AA842E8432E4EFF0FFF911E502
:104FE000021422667980269410C0A2700274E264D2
:104FF00045618280797122F026EC06F42A84AE8421
:1050000032E4EFF07FF701E922668545BB95950014
:1050100001CA2322B40AA2700274E264456182804C
:105020002320B40ACDBF011122E826E406ECAA84AD
:105030002E84EFF07FF42DE19377F40F8A07A69783
:10504000984301271367870098C3B7071220638628
:10505000F400B7071228639FF40002147980973791
:105060000000938727B83E9408404264E260A2643F
:1050700005618DB5B71712206386F400B7171228A3
:105080006394F4006D24D1BFB7271220E387F4FCAA
:10509000B7271228E383F4FCE2604264A26405614E
:1050A0008280011122E826E406EC2A84AE84EFF027
:1050B000BFEC01E98545BB9595002320B4080F009E
:1050C000F00FE2604264A264056182805D71173571
:1050D00000001305A5BB86E4A2E026FC4AF84EF4C6
:1050E00052F056EC02C617B4DDE7130424F2EF00C9
:1050F000F00C0860014693059003EFF0FFA7173509
:1051000000001305A5B9EF00700B0567B2478527AE
:105110003EC6B2478127E39BE7FE973400009384A5
:1051200064BA173A0000130A4ABD97DADDE7938A9A
:10513000EA6897390000938969B703C9040083C7F7
:105140001400630E090617D7DDE72309276717D771
:10515000DDE7A305F7668946086001475686930593
:105160009003EFF03FB808608145EFF03FD0012594
:1051700001E54E85EF00900408600148854713075C
:10518000A10085461306B10093059003A3052101F4
:10519000EFF07FBF08608145EFF05FCD012501E5AD
:1051A0004E85EF00B0018904E39944F9A6600664D6
:1051B000E2744279A279027AE26A6161828017D749
:1051C000DDE7230DF75E854641BF011106EC02C203
:1051D000F32740F113972700B7070002BA9723A0DF
:1051E00007009C4381273EC4A247F3674430730005
:1051F0005010F3274034A18BFDDBF32740F11397C8
:105200002700B7070002BA9723A007009C43812715
:105210003EC6B247EFE0DFC437071000924785274C
:105220003EC292478127E39BE7FE02C2C5BF17C774
:10523000DDE7130727D41C4385271CC38280011197
:1052400006EC02C2F32740F113972700B7070002CC
:10525000BA9723A007009C4381273EC4A247F36767
:10526000443073005010F3274034A18BFDDBF3274B
:1052700040F113972700B7070002BA9723A0070051
:105280009C4381273EC6B247EFE09FBD3707100021
:10529000924785273EC292478127E39BE7FE02C2E1
:1052A000C5BF17C7DDE7130727CD1C4385271CC3E0
:1052B0008280011106EC02C2F32740F11397270008
:1052C000B7070002BA9723A007009C4381273EC47A
:1052D000A247F367443073005010F3274034A18B8A
:1052E000FDDBF32740F113972700B7070002BA97B9
:1052F00023A007009C4381273EC6B247EFE05FB67C
:1053000037071000924785273EC292478127E39BCB
:10531000E7FE02C2C5BF17C7DDE7130727C61C4358
:1053200085271CC38280011106EC02C2F32740F1DD
:1053300013972700B7070002BA9723A007009C43E2
:1053400081273EC4A247F367443073005010F3270F
:105350004034A18BFDDBF32740F113972700B707FB
:105360000002BA9723A007009C4381273EC6B2479C
:10537000EFE01FAF37071000924785273EC29247E4
:105380008127E39BE7FE02C2C5BF17C7DDE713070E
:1053900027BF1C4385271CC3828041110546C14598
:1053A0003725122006E4EFF0FFC437251220D1453F
:1053B000EFF03FCFA26001454101828041110546D7
:1053C000C5453725122006E4EFF0DFC2372512204D
:1053D000D545EFF01FCDA26001454101828041110A
:1053E0000546C9453725122006E4EFF0BFC0372532
:1053F0001220D945EFF0FFCAA26001454101828029
:1054000041110546DD453715122006E4EFF09FBE39
:1054100037251220DD45EFF0DFC8A26001454101CC
:105420008280397106FC22F826F44AF04EEC52E8EC
:10543000F32740F113972700B7070002BA9723A07C
:1054400007009C4381273EC6B247F32740F111472E
:10545000636DF702173700001307478A8A07BA9768
:105460009C43BA978287B727000C23A0070023A28A
:10547000070023A4070023A6070023A8070023AAE8
:105480000700B707200C23A0070085679B870780CC
:10549000F3A74730EFE0DF9CF367443001468145D6
:1054A0000145EFE0DF89014681457D45EFE03F8919
:1054B000014681454D45EFE09F88014681455145B4
:1054C000EFE0FF87014681455545EFE05F870146E4
:1054D00081457D45EFE0BF86014681453145EFE0DE
:1054E0001F86138401810860F1650D4693850520B0
:1054F000EFE09FD9973500009385458517E5DDE7F7
:105500001305C5ADEF00C05117E5DDE7130505AD87
:10551000EF0020521B060500086097E5DDE7938544
:10552000E5ABEFE0BFDAEFE00FA0B72700207D5733
:10553000F8CBF32740F113973700972700009387A4
:10554000E733BA979C633707000CB706000C9387C4
:105550000720B207BA9723A00700314709469305F1
:10556000200493170702F983B697D0C30527E31ADF
:10557000B7FE9307600317C7DDE7A305F7A023ACC9
:10558000C61CF32740F111476365F70E172700008B
:10559000130707788A07BA979C43BA973727000CF6
:1055A00082870147B705000C0966994693170702E1
:1055B000F983AE97B29723A0070823A00710052709
:1055C000E316D7FEB717200C23A00700B727200C3F
:1055D0001D4798C35DBD0147B705000C0966994694
:1055E00093170702F983AE97B29723A0071823A059
:1055F00007200527E316D7FEB737200C23A00700A6
:10560000B747200CF1B70147B705000C096699466A
:1056100093170702F983AE97B29723A0072823A018
:1056200007300527E316D7FEB757200C23A0070045
:10563000B767200C71BF0147B705000C0966994692
:1056400093170702F983AE97B29723A0073823A0D8
:1056500007400527E316D7FEB777200C23A00700E5
:10566000B787200CB5B75C47B70640008127D58FB8
:105670005CC737251220EFF0FF9437151220EFF0AA
:105680007F941546C14537251220EFF03F9415460B
:10569000C54537251220EFF07F931546C9453725BC
:1056A0001220EFF0BF921546DD4537151220EFF0BE
:1056B000FF9113062008D14537251220EFF01F91E6
:1056C00013062008D54537251220EFF03F9013062A
:1056D0002008D94537251220EFF05F8F13062008E8
:1056E000DD4537251220EFF07F8EEFF03F9ED1454C
:1056F00037251220EFF03F93D54537251220EFF0E4
:105700009F92D94537251220EFF0FF91DD453725CF
:105710001220EFF05F9197D4DDE79384240B97C9B3
:10572000DDE793892986214A172900001309895F3B
:1057300008601306000497D5DDE793852509EFE09F
:105740001FC397C7DDE7238FA78283C7090093F79D
:10575000F70FF9DF83C704009B87F7FC93F7F70F78
:10576000636AFA128A07CA979C43CA97828783277B
:10577000C708B70640008127D58F2326F708D5BD77
:105780008327C718B70640008127D58F2326F7182F
:10579000CDB58327C728B70640008127D58F23269C
:1057A000F728C1BD8327C738B70640008127D58FAA
:1057B0002326F7387DBD0146C14537251220EFF07D
:1057C0007F830146C54537251220EFF0BF82014691
:1057D000C94537251220EFF0FF81014625A0054677
:1057E000C14537251220EFF0FF800146C54537251A
:1057F0001220EFF03F800146C94537251220EFF017
:105800006FFF0546DD4537151220EFF0AFFE97B765
:10581000DDE72389077629BF0146C14537251220D8
:10582000EFF04FFD0146C54537251220EFF08FFC04
:10583000054679BF0546C14537251220EFF08FFB9D
:105840000146C54537251220EFF0CFFA05466DB762
:105850000146C14537251220EFF0CFF905469DB727
:105860000546C14537251220EFF0CFF80546BDBFEC
:105870000146C5BF0546C14537251220EFF08FF719
:10588000054655B70146C14537251220EFF08FF682
:10589000054645BF0860A685EFE03FA88DBF0147DC
:1058A0006314E60001458280B307E5000507B3866F
:1058B000E50083C7070083C6F6FFE383D7FE3B8579
:1058C000D74082802A8311C62300B3007D160503CA
:1058D00065FE8280797126EC4AE806F422F04EE4F7
:1058E00052E0AA842E8909C51C5999E3EF00C058DB
:1058F0009C58806881E72685EF00005897270000B4
:105900009387C74B631FF402806483570401A18B04
:10591000A9CB1C6CB9C7FD59294A584483450900D5
:105920009B07F7FF3E87A1ED5CC463D10708228681
:10593000A9452685EF000011FD576309F5022945A9
:105940003DA0972700009387E74A6314F40080681E
:105950006DBF972700009387E742E318F4FA806C45
:105960006DB7A2852685EF00401A55D57D55A270EA
:105970000274E2644269A269026A4561828058C485
:10598000050963D70700185463CBE7006389450115
:105990001C601387170018E02380B700BDBF228664
:1059A0002685EF00200AE31A35F7C9B71C60138774
:1059B000170018E029472380E70051B793878181BA
:1059C000AA85886301BF41119387818122E08063AA
:1059D00006E43C708DE76145EF00007297270000F8
:1059E0009387C7399C6328F01CE1B7E705009387CC
:1059F000C7EE1CC5AD472316F50085471CE93C7072
:105A000017270000130707371863886BA26002642A
:105A10003305E502050588EB060505914101828005
:105A2000AA8703C7050085078505A38FE7FE75FBD9
:105A30008280AA87850703C7F7FF6DFF3385A740DC
:105A40007D158280797122F026EC4AE806F44EE456
:105A5000AA842E89328409C51C5999E3EF00C041FC
:105A60009727000093878735631AF40680641C54D7
:105A70005CC483570401A18BD1C31C6CC1C31C6CD3
:105A800008609379F90F4E891D9D1C506347F500FE
:105A9000A2852685EF00602C3DE55C440525FD3799
:105AA0005CC41C601387170018E0238037011C506A
:105AB0006389A70083570401858B89CBA9476317A6
:105AC000F900A2852685EF00402915EDA270027429
:105AD0004A85E2644269A269456182809727000095
:105AE000938747316314F400806851B7972700000B
:105AF00093874729E31DF4F6806C95BFA285268520
:105B0000EF00A0002DDD7D59D1B701119387818170
:105B100026E4846322E84AE006EC2A892E8491C4B4
:105B20009C5881E72685EF00203597270000938752
:105B3000E728631CF402806403170401931707032A
:105B4000C19393F68700BDEE93F607019DEEA5473E
:105B50002320F900136707042318E4007D55E26051
:105B60004264A264026905618280972700009387DE
:105B700067286314F4008068C1B7972700009387F3
:105B80006720E31BF4FA806C45BF918B95C72C709E
:105B900091C99307C4076385F5004A85EF006056F5
:105BA00023300406835704012324040093F7B7FD30
:105BB0002318F4001C6C1CE08357040193E7870052
:105BC0002318F4001C6C89EF83570401130700208D
:105BD00093F707286386E700A2854A85EF00A04770
:105BE0008357040113F7170005C71C502326040030
:105BF000BB07F0401CD41C6C0145B5F383170401AE
:105C000013F7070829DF93E707042318F400B9B74F
:105C1000898B014791E3185058C4F1BF83D7050120
:105C2000797122F026EC06F44AE84EE413F7870077
:105C3000AA842E8479EF9845634DE000B85D634AED
:105C4000E0000145A2700274E2644269A269456104
:105C5000828038687DD703A904009396370323A078
:105C6000040063DE0606506C83570401918B99C7CC
:105C70001C441D8E3C7099C33C5C1D8E3C680C7CA2
:105C8000814626858297FD5703570401631DF50061
:105C90009440F54763E9D706B70740208507B3D797
:105CA000D700858BADC31C6C232404001CE0931724
:105CB000370363D80700FD576314F5009C4091E358
:105CC00048EC2C7023A02401ADDD9307C407638545
:105CD000F5002685EF00E042233004069DB70C7CDA
:105CE0000146854626850297FD572A86E31EF5F66E
:105CF0009C40BDDB75476385E70059476394E70423
:105D000023A024013DBF136707042318E4007D5539
:105D100015BF83B98501E38609F203B905008D8BB0
:105D200023B035013B093941014791E3985158C4EB
:105D3000E35920F13C640C7CCA864E862685829706
:105D40006349A0008357040193E707042318F40074
:105D50007DBFAA993B09A940E1BF9C6DA5C3011174
:105D600022E806EC2A8419C51C5989E72EE4EF00C5
:105D7000A010A2659727000093874704639BF50056
:105D80000C648397050195C722854264E260056132
:105D900071B5972700009387E7056394F5000C68B9
:105DA000CDB7972700009387E7FDE39CF5FC0C6CCB
:105DB000C9BFE2604264014505618280014582807D
:105DC000411122E006E42A842318B5002319C500F6
:105DD00023300500233405002326050A233C050053
:105DE0002320050223240502214681451305450A87
:105DF000EFF05FAD970700009387674E3CE0970791
