:020000042022B8
:10000000814097000000E780601E1777010013070A
:10001000E778836B0705174CDEDF130CACFE732506
:1000200040F11712DFE71302D255137202FC854527
:100030003306AC0232921741DEDF1301A1FC1291AC
:100040001732DEE713020214B3878B033E92330E9E
:100050000200854301437310403073104034850B18
:10006000635C75091732DEE71302C211B3878B0395
:100070003E92B307AC023302F240930700203302F2
:10008000F24073100234732540F10DC517070000CC
:100090001307471A97000000E780400573500018C7
:1000A00021467310463073100630EF8090157300B0
:1000B0005010F5BF170700001307471797000000FF
:1000C000E780C0021707DEE01307C7F39727DEE0DB
:1000D000938747B3233007002107E34DF7FE2146FE
:1000E000733006306F70700573105730F32750303F
:1000F000E31CF7FE8280010073005010F5BF010081
:100100007312023423305204F322003093D2B2002F
:1001100093F2320093C2320063870200B3020100FF
:10012000130182EE29A0B3020100130181EE16E84B
:100130008332020416F473120234F322103416E2EE
:10014000F322003016E602EA02E006E40EEC12F0BA
:100150001AF81EFCA2E0A6E4AAE8AEECB2F0B6F4EF
:10016000BAF8BEFC42E146E54AE94EED52F156F5D9
:100170005AF95EFDE2E1E6E5EAE9EEEDF2F1F6F5C7
:10018000FAF9FEFD33050100F32500349730010034
:10019000E78080CEA260E26102724273E27306647D
:1001A000A6644665E6650676A6764677E6770A682B
:1001B000AA684A69EA690A7AAA7A4A7BEA7B0E6CDB
:1001C000AE6C4E6DEE6D0E7EAE7E4E7FEE7F926219
:1001D00073901234B26273900230A2724261730063
:1001E00020300100130000000F1000008141014188
:1001F00001428142014381430144814481460147D8
:1002000081470148814801498149014A814A014B9E
:10021000814B014C814C014D814D014E814E014F6E
:10022000814F73500034828073005010F5BF01007D
:10023000AAE8AEECF3252034860519459780000026
:10024000E780A07673704434737041347350403447
:100250004665E6650F00F00F730020304665E665E1
:1002600045B56306B500233005002105DDBF82805A
:100270006389A5006387C500146194E12105A10588
:10028000D5BF8280411106E417B50100130585A78B
:100290009705DEE7938505D71706DEE7130686DDAB
:1002A00097000000E78000FD17B50100130585AD3C
:1002B0009705DEE7938505DD1706DEE713068664FE
:1002C00097000000E78000FB17B50100130585A02B
:1002D0009705DEE7938505D31706DEE7130686D27A
:1002E00097000000E78000F91705DEE71305856138
:1002F0009715DEE79385058497000000E780A0F658
:100300001715DEE7130505849715DFE7938585202C
:10031000A2604101170300006700E3F48147630C0A
:10032000F6003387F500834607003307F50085079D
:100330002300D700EDB782809727DEE09387878C74
:1003400017B7010013070799638EE7009726DEE0D1
:100350009386468B6388D700104390C3910711079B
:10036000E3ECD7FE828000000000000000000000E7
:10037000797106F422F026EC4AE81DE19766010047
:100380009386C6C3176601001306C6CF9305700394
:1003900017650100130505C497800000E780A03FA2
:1003A000033905012A84631609001769010013093E
:1003B000E9BF0C40930680021C78B384D5025840F4
:1003C000BE9481EC97660100938646C217660100D1
:1003D000130646CB9305600465BF9040630DB600DD
:1003E00097660100938686C217660100130686C9C8
:1003F0009305700471BF6309C704634A0702104480
:100400006357C702B306D702B6979443638DE600DD
:1004100097660100938686C217660100130686C69A
:100420009305E004B5B79C6F99C3228582979C68B9
:1004300099C32285829797000000E78080221C40A4
:1004400008EC233404025CC09C70228582979700DC
:100450000000E78000211C7408F085071CF41C5C78
:10046000D1C35C401440638FD70693058002B386E6
:10047000B6021878B387B702BA97369790671867AD
:1004800032E43AE097E00000E7800095054597E008
:100490000000E7808091976501009385A5BE1765F0
:1004A0000100130525BC97E00000E78000441945D2
:1004B00097E00000E780608F02672266CA86CA85DF
:1004C00017650100130585BA97E00000E780E04159
:1004D0000274A270E26442690145456117E30000BD
:1004E0006700A38CA2700274E26442694561828055
:1004F000011126E4AA8422E88E042E8406ECA2943C
:1005000097000000E780E015631494029707DEE788
:100510009387473F9C634264E260A26485071707A4
:10052000DEE72331F73E0561170300006700631320
:100530000860210497000000E780C0E3F1B71D7157
:10054000A2E8A6E4CAE04EFC52F856F45AF05EEC7B
:1005500097A701009387077486EC9863AA892E8475
:100560003AE40149BE84176A0100130AAAB2976AE5
:100570000100938A2AAF176B0100130BAB9E976B98
:100580000100938BAB9F631A390122679C6063095A
:10059000F70A97E00000E78080891C649DE3976676
:1005A00001009386269A176601001306A6AE9305EE
:1005B000C00E176501001305E5A197800000E780D4
:1005C000801D829735E597E00000E780E0800545D3
:1005D00097D00000E780607DD285568597E00000C7
:1005E000E780A0300D4597D00000E780007C0C60CC
:1005F00001465A8597E00000E780202F014597D0FB
:100600000000E780807A8347040113F7170011C3C5
:1006100001A0898B91CF1306710095455E85978067
:100620000000E780406E01C997600000E780A000ED
:100630000509610489BF97000000E780A09CCDBF39
:10064000E6604664A6640669E279427AA27A027B91
:10065000E26B25618280178300006700C31A0111D5
:1006600006EC97800000E780A019E2602AE422658A
:1006700005618280011122E806EC2EE42A8497802D
:100680000000E7804018A265E2602E943335A40094
:10069000426405618280411122E006E42A84978049
:1006A0000000E78040160214B7470F0001909387BF
:1006B00007243304F4022A9497800000E780A014F2
:1006C000E37CA4FEA260026441018280411106E441
:1006D00097D00000E7804070054597D00000E78084
:1006E000C06C976501009385659E17650100130531
:1006F000659797E00000E780401F014597D0000014
:10070000E780A06A176501001305459A97E000008D
:10071000E780A01D014597D00000E7800069A26036
:100720000545410182805D7186E4A2E026FC4AF81D
:100730004EF452F056ECB717202003C7A7001377EA
:10074000F70F2305E10003D7270042174193231633
:10075000E10003D74700421741932317E100034705
:10076000A100137707021DC703C7070685461D832F
:10077000A305E1000347B100639EE60003C7B7008D
:1007800013674700A385E7009707DEE79387878F06
:10079000BC678297B717202083C70706918BB5EFF8
:1007A0008347A100898B99C79707DEE79387878DD9
:1007B000BC6382978347A100858B99C79707DEE7C3
:1007C0009387478C9C7F82978347A100918BB1C709
:1007D000B71720202387070003C7B7001367170246
:1007E000A385E7001707DEE7232407142385070006
:1007F00003D72701136707082399E70003D72701C9
:10080000421741936D9B421741932399E700970745
:10081000DEE7938727879C7B82978357C100858B70
:100820008DCFB71720202387070003C70706118B3A
:100830000DE703D72701118B2DC703D727010945E2
:10084000421741936D9B421741932399E700970705
:10085000DEE7938727839C6B82978357C100C2177B
:10086000C193F99BF1E38357E100C217C193F99B50
:1008700099CF0354E1008549B714202042144190D8
:10088000054A97FADDE7938AEA7F63180414A660A5
:100890000664E2744279A279027AE26A01456161F2
:1008A000828003D72701418B1DE31707DEE713077B
:1008B0002708144381268DCE144305468126639470
:1008C000C60497F7DDE79387E77B9C731DA803D7E2
:1008D0002701136707082399E70003D5270197F736
:1008E000DDE79387277A9C6B1345F5FF0589ADB744
:1008F00083D72701858BB5D397F7DDE79387877873
:100900009C6B014591BF184389460127631CD700A2
:1009100083D72701858BB1D397F7DDE79387877658
:100920009C6FC5B7029015BF8357C1008549B714A6
:100930002020C217C193F99BC217C1932316F1005F
:100940000354C100054A97FADDE7938AAA7342145B
:10095000419011D8058093771400B5CF3B193A0127
:1009600003D764004219135909039347F9FFF98F1C
:100970002393F40083C504069189A1E993970902A2
:10098000F183A69703D72710118B19CB03D7271014
:100990008545421741936D9B421741932391E71080
:1009A00003D727101377070209CF03D7271093E542
:1009B0002500421741931377F7FD42174193239186
:1009C000E71083B78A004E85829783D76400336926
:1009D000F900239324018529ADBF05809377140086
:1009E000C1C73B193A0103D78400421913590903BF
:1009F0009347F9FFF98F2394F40083C50406918986
:100A0000B1ED93970902F183A69703D76710118B75
:100A100019CB03D767108545421741936D9B136728
:100A200017002393E71003D767101377070409CF44
:100A300003D7671093E52500421741931377F7FB1F
:100A4000136717002393E71083D76710A18B99C30F
:100A500093E5450083B70A004E85829783D78400CB
:100A60003369F90023942401852905B55D7126FCBD
:100A70004AF84EF452F056EC5AE886E4A2E0B71772
:100A8000202003A40720FD79014B1374F40F814447
:100A90003719202017FADDE7130ACA5E856AFD19A7
:100AA00001ECA6600664E2744279A279027AE26AF5
:100AB000426B01456161828093771400B1C713973F
:100AC000040271834A97832747208127F99B2322B9
:100AD000F7208327472093F7070FA307F1008347E9
:100AE000F100832547208326472093F7F70F8125C0
:100AF00093F6061089CE83274720130B0004812725
:100B000093F7F7EF2322F7208524058051BF832632
:100B100087208989918381251B850700812691CDB6
:100B20009207CA9703D727103377570119C703D7FE
:100B3000271033F7E9002391E71083470906918BCB
:100B4000E1F783370A055A86B335B00082976DBF47
:100B500005486314060B13F6250011C20290821695
:100B600037162020F1828125B296021523A4B620E3
:100B70007181894532956317B7040356651005677F
:100B800013071780518F421741932313E510035623
:100B9000651061770507518F421741932313E510C4
:100BA0000356651009670507518F2313E51023A627
:100BB000F620A1C783A74620812793E7170023A229
:100BC000F620828083576510C617C59393E71700F8
:100BD0002313F51003576510FD779387F77FF98F7F
:100BE00093E717002313F51003576510F977FD17E6
:100BF000F98F93E717002313F51082805DC9D5C9DB
:100C0000021585480191631D160513F6250011C2D2
:100C10000290821637162020F1828125B29623A4F5
:100C2000B620120589452A966312B702035726108B
:100C300085654D8F2311E61023A6F62083A7462055
:100C4000812793E7170023A2F620828003572610FE
:100C5000FD77FD17F98F2311F61023A60621F9BFA2
:100C6000930685009B57280013962600C217B716D7
:100C700020200147C193B2961B060700636CF60261
:100C80009377C8FF139707020193BA95130785005E
:100C90009316270037172020369763E40703B7170A
:100CA000202012053E958357251093E71700231146
:100CB000F5108280131627002E961042050790C269
:100CC00065BF83C60500852785052300D700F1B7DA
:100CD00002151358C50137152020429503284520D9
:100CE0001B1747001377F70F0128336707012322EB
:100CF000E520032745209B9515001B1626004D8FE8
:100D000001272322E520032745209B96960093F692
:100D10000660518F01272322E52003274520012764
:100D2000D98E2322D5202324F5208327452081270F
:100D300093E787002322F5208280411122E006E418
:100D40008346450005462A846393C60009461C4035
:100D500085CF035764003B47C7021D466356E60232
:100D600093F7F70F371620202307F6000D838147EE
:100D700013761700630706129206D58F93F7F70FC5
:100D8000371720202301F7061C4089CF0357840022
:100D900093F7F70FB71620202387F60093573700F5
:100DA0002392F6068347440005476391E7101040FD
:100DB00037172020835627348547BB97C70093C732
:100DC000F7FFF58F2311F7341C40B9C70356040110
:100DD0001377760031E303470402F9467D379375B4
:100DE000F70F63EBB602821793D6C701B71720201F
:100DF000B69742172390071041932390E71003D72B
:100E000007101B17B700421741932390E71003D731
:100E10000710598E2390C7108367040037172020CE
:100E20009207BA9783D6271093E606042391D7102A
:100E30008346A40085476394F60483670400104C3E
:100E400089469207BA976314D60883D627100546B9
:100E500093E606402391D7108367040085669207C6
:100E60003E9783572710D58F2311F7101C54184035
:100E700048448D46854597000000E780A0E503467D
:100E80000400B716202083D7660005473B17C7002C
:100E9000D98FC217C1932393F600A2600264410167
:100EA00082808527058393F7F70FD9B599EFB71699
:100EB0002020104083D7263405473B17C700D98F21
:100EC000C217C1932391F63401B70290F5BD83D6C2
:100ED00027100146C216C19293F6F6BFC216C19200
:100EE0002391D7108367040092073E9783562710FB
:100EF000FD77FD17F58F2311F7108DBF411122E00B
:100F000006E48346450005462A846393C6000946E5
:100F10001C4085CF035764003B47C7021D466356FC
:100F2000E60293F7F70F371620202307F6000D830C
:100F3000814713761700630806149206D58F93F73E
:100F4000F70F37172020A301F7061C4089CF03575E
:100F5000840093F7F70FB71620202387F6009357E6
:100F600037002393F6068347440005476392E71250
:100F7000104037172020835607348547BB97C7009A
:100F800093C7F7FFF58F2310F7341C40B1C7035602
:100F9000040139C21377760021E303470402FD46BA
:100FA00063ECE602821793D6C7017D37B71720207E
:100FB000B69742172392071041932392E71003D765
:100FC00047101B17B700421741932392E71003D72E
:100FD0004710598E2392C7108367040037172020CB
:100FE0009207BA9783D6671093E616082393D71013
:100FF000836604009206BA9683D76610C217C1931F
:10100000F99BC217C1932393F6108346A40085472A
:101010006399F60483670400104C89469207BA97D7
:101020006319D60803D66710856693861680D18E1D
:10103000C216C1922393D710836704000546920716
:101040003E978356671089678507D58F2313F7105E
:101050001C54184048448D46814597000000E780A5
:1010600060C703460400B716202083D786000547D3
:101070003B17C700D98FC217C1932394F600A26013
:101080000264410182808527058393F7F70F55B5E8
:1010900099EFB7162020104083D7063405473B1739
:1010A000C700D98FC217C1932390F634F9BD0290BF
:1010B000E9BD03D66710FD769386F67FF18E93E641
:1010C00016002393D71083670400014692073E97CA
:1010D00083566710F977FD17F58F93E717002313F1
:1010E000F710BDB78280931705028193A1078A0785
:1010F000B71620209B5826000147B6979B0607008D
:1011000063E21603021501919377C6FF210582174A
:101110000A053717202081933A951B870700636DD6
:10112000C700828003A8070093162700AE96012807
:1011300023A006010507D9B7834605003387F500CC
:1011400085072300D700D1BF82809707DEE793870A
:10115000679F9847D8C3828097F7DDE79387877B9F
:101160009C639C6F8DC3411106E42E86AA8517F5FA
:10117000DDE71305A5798297A26001257D1513355A
:101180001500410182800145828093F72500A9E383
:101190001317050201931706DEE71306A6B093178F
:1011A0006700B29783C6A7008548639D160303E7CF
:1011B000C700B716202013070702120736971847F3
:1011C0009477BB06D740D4DB9C5B6383D700029047
:1011D00097F7DDE7938707749C6303B30702630CFB
:1011E000030A028303A84703945F03AE87013B030E
:1011F000D800D4DF23AA67020948E31B0EFD03A829
:101200000703636D03016316030903A8C701E31114
:1012100018FDDDDE83D70701E3ECF6FA93176700CC
:10122000B29723AE0702945BDC5B63F3F600029097
:1012300093166700B2969C5ACC5A83D606013B8817
:10124000B740428563F30601368593166700B29670
:1012500088DE1B0805008842B71820209316050277
:101260008192C1069206C69683D8260093F828007C
:10127000E39C08FE1A073A96833886028215184EB8
:1012800054460346A6008191C695170300006700E7
:101290002397029061B78280F32740F11147636D75
:1012A000F706175701001307E71D8A07BA979C43F3
:1012B0007D89B726000CBA9782879C4605473B1567
:1012C000A7005D8D012588C6828083A78608054713
:1012D0003B15A7005D8D012523A4A608828083A766
:1012E000861805473B15A7005D8D012523A4A61888
:1012F000828083A7862805473B15A7005D8D0125C1
:1013000023A4A628828083A7863805473B15A7001B
:101310005D8D012523A4A63882809707DEE723A5EB
:1013200007824111B717202006E42394070003D752
:10133000670013056005058B2393E7009700000005
:10134000E780C0F51305700597000000E78000F501
:1013500097F7DDE79387075C9C6303B38700630718
:101360000300A2601305F00F41010283A260410156
:10137000828013070004AE87B2856314E6000290F2
:10138000828005476390E7081316050201929317C0
:101390004600371720203E978357271093F70740C2
:1013A000B9CB9707DEE79387E78F131866003E985F
:1013B0008328C8016391080483280803638D080209
:1013C00003580801BBF80803639708020358271065
:1013D00013781800E31C08FE1A06B2979877999EB6
:1013E000D4DB97F7DDE79387E7529C6303B30702EB
:1013F0006309030802838357271093E7170023111B
:10140000F7108280BDEF13160502019217F7DDE792
:101410001307477593176600BA9703A8C7016312AD
:10142000080603A80703630E080483D807013B7866
:1014300018036318080403B88702BB860641D4DB8F
:1014400093174600B7162020BE9683D766101398D0
:101450004703634B080083D76610C217C193F99BFB
:10146000C217C1932393F61097F7DDE79387874A56
:101470009C6303B38702630603001A063297505B2E
:1014800002838280371720208347B70093E7270025
:10149000A305F70097F7DDE79387C76AD84398C796
:1014A0001947D8C382805D714EF456EC5EE486E441
:1014B000A2E026FC4AF852F05AE862E093F9F500FF
:1014C000AA8BAE8A6387090297F7DDE79387874483
:1014D0009C6303B387026315031CA6600664E27471
:1014E0004279A279027AE26A426BA26B026C616174
:1014F0008280131B0502135B0B02131A4B00371774
:1015000020203A9A035C6A1097F4DDE7938484659F
:10151000137C1C0063150C0693176B00A697985B51
:10152000DC5B636DF71613176B0026971C5B4C5B37
:10153000035607013B85B740AA866373A600B286AF
:1015400013156B00269514DF232E05020338850240
:101550000664184D54450346A500A660E27442791E
:10156000A279027AE26A426BA26B026C8215084190
:101570008191C295616117F3FFFF6700A35D1314AA
:101580006B0026948346A40003598A108547639014
:10159000F60A83566A108367C400139646039207BF
:1015A000BA97635B060683A647208126F99A23A291
:1015B000D72083576A10C617C59393E717002313E4
:1015C000FA108367C4000C749387070292073E9752
:1015D0001C478D9F5CD863120902E28983576A1009
:1015E000C217C193F99BC217C1932313FA10E38565
:1015F00009F28547E393F9EEC1BD821781934A86CC
:10160000BE9597000000E78040AE5C5885493B8955
:101610002701232A2403D9B723A6272103A747207C
:10162000894901271367170023A2E72045BF6302FA
:101630000902836744030C744A86BE959700000034
:10164000E780A0AA5C58232E24033B892701232A84
:10165000240393176B00A697944F0947639AE602F9
:10166000CC4F0546D85B945B639FC5006379D70078
:1016700083A9C70383D70701B3B9F90085B7E38E00
:10168000E6F40290A1BFE38AE6F4E369D7F4D5BF9C
:10169000D85F83D70701E3F2E7F4E5B7029061B5BD
:1016A00093970B0213D7A70197F7DDE79387874B33
:1016B0000664BA97A660E2744279A279027A426B14
:1016C000026CD05BD6855E85E26AA26B61610283A3
:1016D000411122E0914717F4DDE71304A44606E424
:1016E00017F7DDE7232AF75C231004002301040029
:1016F0002322040017F7DDE7232AA72208C8971042
:101700000000E78080E0371720208347170093E729
:101710000704A300F70089475CC0A260026441018E
:10172000828097F7DDE723BFA71E828097F7DDE76A
:1017300023B2A71E8280021501911317650097F747
:10174000DDE793872756BA9705472389E700931764
:101750004500371520203E958357251093E7070154
:101760002311F5108280021501911317650097F778
:10177000DDE79387273FBA9705472389E70093174B
:101780004500371520203E958357651093E71702D3
:101790002313F510828097F7DDE79387A750114751
:1017A000D8CB214723A007002389070023AC0700DB
:1017B00023B407022398A70098DF171300006700DF
:1017C000C30197F7DDE723B3A75097F7DDE723A31E
:1017D000B75097F7DDE723A1075097F7DDE723A17F
:1017E000075097F7DDE783D7E74C63F3F500AE8743
:1017F00017F7DDE72324F74E17F5DDE71305854AD4
:1018000017130000670003FF411122E006E417F7F9
:10181000DDE7130727338D475CC3914797F6DDE774
:1018200023ACF6482310070023010700230C070010
:10183000B717202083C7170017F4DDE71304040D42
:10184000130500049BD7470093C71700858B2330EF
:1018500004001CCB97000000E78020F4228502647E
:10186000A260A1454101170300006700C3F54111C3
:1018700006E4937735008DCF97F7DDE723B80708A7
:1018800097F7DDE7938707099C639C7B91C3829759
:10189000914717F7DDE72321F742A260A14517F52D
:1018A000DDE71305A5064101170300006700A3F15A
:1018B00017F7DDE71307073F544B9947639AF6087C
:1018C000545B1C5B63F8F604187717F6DDE70366D4
:1018D0002641BB86D740329717F6DDE72338E63E30
:1018E00017F7DDE70357073DB6876373D700BA875D
:1018F000A26017F7DDE72323F73E97F7DDE723A183
:10190000073E17F5DDE71305E53941011713000020
:101910006700A3F097F7DDE79387C7FF9C639C7B85
:1019200091C3829797F7DDE723B6073A97F7DDE78C
:1019300023B6073A914717F7DDE7232FF73697F7D6
:10194000DDE723B507FCB717202023870700B1B7D1
:10195000A26041018280011106EC22E826E493771F
:1019600035009DCF97F7DDE723B207FA97F7DDE75C
:10197000938747FA9C639C7F91C38297914717F79F
:10198000DDE7232BF732A14517F5DDE7130505F851
:101990004264E260A2640561170300006700A3E2ED
:1019A00017F4DDE713040430AA84228597100000A1
:1019B000E78000F054481D47A2876396E60A48581E
:1019C0001858631DE50297F7DDE79387A7F49C633A
:1019D0009C7F99C326858297B7172020238707000D
:1019E00017F7DDE7233407F2114797F6DDE723A564
:1019F000E62C130780042399E70071B76371E504AF
:101A000037172020930600042319D7000C5817F726
:101A1000DDE70357272ABB86A540B6856374D70048
:101A20009B0507009C770215019117F7DDE7232737
:101A3000B72A17F7DDE72325072A3E9591BF97F7C9
:101A4000DDE723B507EC914717F7DDE72326F726F7
:101A500013070006B71720202399E700E2604264CD
:101A6000A264056182800290D5BF97F7DDE723BFAE
:101A7000A72497F7DDE723AFB72497F7DDE723AD7A
:101A8000072497F7DDE723AD072497F7DDE783D732
:101A9000672263F3F500AE8717F7DDE72320F7240D
:101AA00017F5DDE713050520171300006700E3D6DF
:101AB000397126F4979401009384C41D9C6006FC40
:101AC00022F83EEC02E802C40D8905C5914717F7DC
:101AD000DDE72323F71E97F7DDE723B907E2A145EA
:101AE00017F5DDE7130585E297000000E780A0CD3C
:101AF00095AA17F4DDE71304E41A22859710000075
:101B0000E78000DB185CA147A2856319F76495475D
:101B100017F7DDE72322F71A97F7DDE783C707DF1B
:101B200013F7070617F4DDE7130444DE63100760BC
:101B3000834614002D476362D74417F7DDE7034758
:101B4000F7DC97560100938626950A0736971843C7
:101B50003697028717F7DDE71307C7FE4C430946A0
:101B6000BA86637CB6409B9587019BD5854163D639
:101B70000540FD8B6395071A17F5DDE7035525D959
:101B80009B578500FD3713960703419219476366FB
:101B9000C73E175701001307279393172600BA97DC
:101BA0009C43BA9782871375F50F6318053C97F726
:101BB000DDE783D7E7D56392073C97F7DDE79387A7
:101BC00067D69C639C63638A073A280082972AE859
:101BD000B71720202387070017F7DDE7035767D3E0
:101BE0006310075C1307800402C62399E70091473E
:101BF00017F7DDE72322F70C03471400954763121C
:101C0000F702856702C6938777383247012763F961
:101C1000E75417F7DDE70347E7F2B71720202380E3
:101C2000E700034714008D47E317F7EA17F7DDE7EE
:101C30000357E7CD8947E310F7EA856702C6938724
:101C400077383247012763F1E75297F7DDE783D70B
:101C500027CCA1830947638DE752636BF750854614
:101C60006383D75262679C606302F75897C0000095
:101C7000E780E01B97F7DDE79387C7CA9C639C6BFF
:101C8000638D072E2C001375F50F829789B797F790
:101C9000DDE79387A7C99C436391072E1375F50F62
:101CA000631D052C97F7DDE783D787C66397072C5D
:101CB00097F7DDE7938707C79C639C67638F072AC5
:101CC000884A2C00829721B797F7DDE7938787C46E
:101CD0009C639C6B6383072A944A300089450145C5
:101CE0008297F5B597F7DDE7938747C49C436396E2
:101CF00007281375F50F6312052897F7DDE783D7DB
:101D000027C1639C072697F7DDE79387A7C09C63ED
:101D10009C6B63840726944A30009D45D1B7854665
:101D20006393D70297F7DDE79387C7BE9C639C6BED
:101D30006385072497F5DDE783D565BD144B300037
:101D4000A181054571BF639AC72297F5DDE783D569
:101D500005BCA1816383052297F7DDE7938787BBE5
:101D60009C639C6B638B0720144B300009458DBF2F
:101D700083472400954693F7F70717F7DDE723031A
:101D8000F7DC17F7DDE71307E7DB5843E302D7E497
:101D90008D46631AD700E38D07E2914717F7DDE719
:101DA0002324F7DA35B51146E314C7E2E39207E2DC
:101DB00097F7DDE723AAD7D821BD97F7DDE793870B
:101DC00067D8D8438D4603452400E303D7E097F650
:101DD000DDE72383A6D891466314D702E30A05DE24
:101DE000154797F6DDE723A1E6D617F7DDE71307DA
:101DF00067B218631863E30D07DC8C4B0297C9BB0D
:101E00001546E317C7DC17F7DDE71307A7B018631C
:101E100075F197F7DDE723A9D7D21C67E38A07DAC4
:101E200082977DB38357240003574400D98FE391F1
:101E300007DA97F7DDE783D7C7AD0547E31AF7D889
:101E400017F7DDE7130747D13AE83EC451B317F758
:101E5000DDE7130727CF5443114617F7DDE7035794
:101E600047AB639AC6048356240003564400D18EC0
:101E7000E39006D601278946E31CD7D4FD8B85461F
:101E8000638FD70A91CFE395E7D497F7DDE783C750
:101E900087E2B337F00017F7DDE72311F7A829A091
:101EA00097F7DDE7239CD7A697F7DDE7938707A78A
:101EB0003EE8894759BF1546E39CC6D097F6DDE753
:101EC00083D6E6A4E39606D001278946E312D7D04D
:101ED00093F6F7018547638AF6049DCEE39AE6CE32
:101EE00097F7DDE783D7C7A21B9787011B57874169
:101EF00097F6DDE7938686A26358070493F7F70702
:101F00009A07AE9783C7270136E8B337F00017F773
:101F1000DDE72315F7A071BF97F7DDE783C707C497
:101F20009B97170093E71700BDB717F7DDE7035737
:101F3000279E97F7DDE783C7F7C0E3EBE7C897F77E
:101F4000DDE7239D079C8DB79A0717F7DDE7130799
:101F500067C1BA9745BF17F7DDE70357879B11EFB6
:101F600097F6DDE783D6A69A1B870600054663062B
:101F7000C702A1C689466301D70C914717F7DDE771
:101F8000232CF7D297F7DDE723B20798B717202065
:101F9000130700062399E700F1B1FD8BF9FF97F7CE
:101FA000DDE7938727BAD4438D47E3F8D7FC97F74B
:101FB000DDE72385E7BA029021B9FD8B0947E39E4F
:101FC000E7FA97F6DDE783D6A69413F7F60F55D711
:101FD00097F7DDE7938707B7C8439547E31FF5F801
:101FE0009B9786019BD7874163D507021377F70735
:101FF00093166700B387D5002389C7001207B71768
:1020000020203E978357271093E707012311F710ED
:10201000C1B697F7DDE79387E7B41A073E979206B4
:10202000B71720202309C700BE9683D7661093E711
:1020300017022393F61069BEFD8BA1F3834744007A
:10204000E38807B81DBF17F7DDE70357878C15F73F
:1020500017F7DDE7130707AF54430D47E37FD7F0CA
:1020600017F7DDE70357A78A01CF8546E317D7F0B7
:10207000FD8BE39F07B497F7DDE7238107AE89BEA9
:10208000FD8B0947E396E7B497F6DDE783D64688EC
:1020900013F7F60FE30E07B29B9786019BD7874194
:1020A00063DB07021377F70793176700AE9723895F
:1020B00007001207B71720203E9783572710C21733
:1020C000C193BD9BC217C1932311F71083572710EB
:1020D00093E7070425BF97F7DDE79387A7A81A07BB
:1020E0003E9723090700920637172020369783571B
:1020F0006710C217C19393F7F7FD93E717002313F7
:10210000F7108357671093E717082313F710C9B424
:102110008357240017F7DDE7A300F7A455BC97F712
:10212000DDE7938777A33EE8854705B39307000271
:10213000631BF7002C00080897F0FFFFE780000200
:10214000E30D05E271B493070004E318F7E22C00F5
:10215000080897F0FFFFE7806000DDB7029031BD0F
:10216000324705273AC655B4324705273AC6D1BC8F
:102170000D476383E7021147E396E7AE97F0FFFF51
:10218000E78080F6C5B4B7172020A387E700D9BC45
:10219000B71720201147D5BFB71720200547F5B73F
:1021A000130700042399E70083070400426563D8FE
:1021B0000702994717F7DDE72320F7B011E10290F6
:1021C000224797E7DDE783D7C77463F3E7003EC490
:1021D000A245426597000000E780608961B49D4791
:1021E00017F7DDE7232AF7ACA245FDB8E270427489
:1021F000A27421618280AA8F17F5DDE7130585940B
:10220000032305018242631E03021B83F8FF1B0E9A
:10221000030009456365C5050213179E0100130EEF
:10222000EE9D1353F3017293035E030005431B8F6E
:1022300006009B0E06006364EE0163F9EE03029054
:1022400082800545130E0020E312A3FE638D680013
:10225000638708000D45130E0004E37915FD130E86
:1022600000200143E9B7130EF03FC9B7E30903FCAF
:10227000139E0F0217F3DDE71303C3A2135EAE0133
:102280003305C3011393160033A36E0013431300E9
:10229000230265002320F5012314B5002313C50094
:1022A0002318D5002300E5022305F50023260501A8
:1022B00023090500232A0500232C150123340502D8
:1022C000232E5500170300006700832CAA8F17F5F3
:1022D000DDE713052587032305018242631E030200
:1022E0001B83F8FF1B0E030009456365C505021338
:1022F000179E0100130E8E901353F3017293035E29
:10230000030005431B8F06009B0E06006364EE016D
:1023100063F9EE03029082800545130E0020E3125C
:10232000A3FE638D6800638708000D45130E00044B
:10233000E37915FD130E00200143E9B7130EF03FBA
:10234000C9B7E30903FC139E0F0217F3DDE713037C
:102350006381135EAE013305C3011393160033B3DB
:102360006E0013431300230265002320F50123149C
:10237000B5002313C5002318D5002300E50223056B
:10238000F5002326050123090500232A0500232C37
:10239000150123340502232E5500170300006700A2
:1023A000232EB28711E1029091E102900215019172
:1023B00017E7DDE71307077B93166500BA968CF6DF
:1023C0009CDA23AA060223AE060291C703D60601B1
:1023D00063EEC70090DE1A053A95184D5445034642
:1023E000A500084117E3FFFF6700C3769CDEE5B751
:1023F000B2870DE50290D1E5029082800D48631B03
:10240000070103D806013B08680263EC070523AC0B
:102410000603A1A80548631A0705E5B7F1DD131601
:102420000502019297F8DDE79388C88713176600C5
:102430004697034747000543631367000943931614
:102440006600C696984E88C28CF69CDA23AA0602CD
:1024500023AE06020948E31307FB03D86600E368CE
:10246000F8FA93166600C6969CDE1A06B29803A880
:10247000880383A6C80003C6A80017E3FFFF670010
:1024800023788280F32740F11147636DF7061747E1
:102490000100130727058A07BA979C437D89B72651
:1024A000000CBA9782879C4605473B15A7005D8DB7
:1024B000012588C6828083A7860805473B15A700AB
:1024C0005D8D012523A4A608828083A78618054771
:1024D0003B15A7005D8D012523A4A618828083A744
:1024E000862805473B15A7005D8D012523A4A62856
:1024F000828083A7863805473B15A7005D8D01259F
:1025000023A4A6388280797197E7DDE723A20742EA
:1025100022F026EC06F4B71720200D47AA84A38FDB
:10252000E706371420208347F40793F7F70FA30734
:10253000F1008347F10093F7F70FF5F713056005F6
:102540002305040097000000E78000F413057005E0
:1025500097000000E78040F32314040083576400D1
:10256000858B2313F40085476398F4008347140098
:1025700093F7F70DA300F400B71720200547239425
:10258000E734A2700274E26445618280036705004B
:10259000B7172020410712073E97231107008366D3
:1025A00005009206BE9603D72610421741936D9BF5
:1025B000421741932391E610836605009206BE966A
:1025C00003D72610421741933D9B42174193239115
:1025D000E610836605009206BE9603D726104217C2
:1025E00041931377F7FD421741932391E610184D5D
:1025F00089466305D7048D46630ED7008546631D63
:10260000D70603670500116612073E978356271009
:10261000D18E11A803670500F176FD1612073E97CB
:1026200003562710F18E2311D710036705001207F8
:10263000BA9703D72710461745930DA803670500DF
:10264000F176FD1612073E9703562710F18E2311DF
:10265000D7108346A5000547639CE6000367050085
:10266000A1661207BA9703D72710558F2391E71059
:1026700017E3FFFF6700A36C0290DDBF036705004F
:10268000B7172020410712073E97231307008366E0
:1026900005009206BE9603D76610421741936D9BC4
:1026A000136717002393E610836605009206BE9613
:1026B00003D76610421741931377F7FB1367170090
:1026C0002393E610836605009206BE9603D7661034
:1026D000421741931377F7FD136717002393E61012
:1026E000184D89466301D70A8D466306D70485468F
:1026F0006311D70E836605009206BE9603D7661057
:1027000046174593136717002393E61003670500E8
:102710009166850612073E9703566710D18E2313E4
:10272000D710036705001207BA9783D667100567AD
:102730000507558F99A08366050071777D1792066E
:10274000BE9603D66610718F136717002393E610A9
:10275000036705008566850612073E9703566710D6
:10276000D18E2313D710036705001207BA9703D73A
:10277000671046174593136717002393E71017E375
:10278000FFFF6700E3778366050071777D17920688
:10279000BE9603D66610718F136717002393E61059
:1027A000836605007D777D179206BE9603D6661078
:1027B000718F136717002393E61003670500120754
:1027C000BA9783D6671061770507558F42174193F3
:1027D0006DB702906DB7B7172020238707002399A4
:1027E000070003D76700136717002393E700828071
:1027F0005C4911476397E70097E7DDE723AA0712D3
:102800008280F59B15476397E700894717E7DDE767
:102810002320F71282801C41C9EB1C758DCF184D07
:102820001DEB145D371820201BD62600421641925E
:102830009B05070063E7C50413F7C6FF13160702DD
:102840000192B297371620206365D704185D5C5952
:1028500058DDB99F5CD9584999476317F7008547F8
:1028600017E7DDE72326F70C58591C59637AF7025E
:10287000371720208357270193E727002319F700F4
:10288000828093152700BE958C4105072320B8024E
:1028900045B783C50700052785072300B6026DB736
:1028A000B717202029472399E70082804111231779
:1028B000010037172020230707001C41B1E71C75D2
:1028C000A1C703578701B71820201377F70713779D
:1028D000F70F2317E1008356E100014713D82600C4
:1028E0001B0607006364060313F7C6FF0127BA97A8
:1028F000371620206365D7020357E1005C59B99F62
:102900005CD98357E1005CDD4101828083A5080228
:10291000131627003E9681250CC20507D1B78345C3
:10292000060205278507A38FB7FEE9B797E7DDE71E
:1029300093878702984385476310F702894717D723
:10294000DDE7A301F77C014713080002814797D612
:10295000DDE79386267B0DA835E7A1E2894717D7E7
:10296000DDE7A301F77C9D4717D7DDE7A30CF778D8
:10297000130700021308000297D7DDE793878778D3
:1029800097D6DDE79386067A39E909456392A5046F
:1029900023200601B6873E8582806396F60289472A
:1029A00017D7DDE7A300F7769D4717D7DDE7A30B21
:1029B000F776130700021308000297D7DDE7938725
:1029C000677671B7029001470148814781466DBF24
:1029D0009D466396D50091E3029018C26DBF814772
:1029E0005DBF8D4717E7DDE7232AF7F4054517F3A9
:1029F000FFFF670083D78D4717E7DDE72320F7F454
:102A0000354697D5DDE79385656D054517030000CD
:102A10006700439E8D4717E7DDE72321F7F2054561
:102A200017F3FFFF670063D197E7DDE723AC07F0FB
:102A300097E7DDE723A607F097E7DDE723A007F098
:102A400097D7DDE723A0076A97D7DDE723AA0768B2
:102A50000111854717E7DDE7232207F006EC22E89E
:102A600017D7DDE72322F76817E7DDE723220738CA
:102A700017E7DDE72320073817E7DDE7232E0736C2
:102A800017E7DDE7232C073617E7DDE7232A0736AC
:102A900017E7DDE72328073617E7DDE723260736A4
:102AA00017E7DDE72314073617E7DDE723010736CD
:102AB00017E7DDE7233807EA17E7DDE7233807EAFA
:102AC0006390F50A17D4DDE70344346597D7DDE753
:102AD00083C7A7641B1484005D8C97D6DDE783C68B
:102AE000466497D7DDE783C7B7639B968600DD8E84
:102AF00036868948014881470547930500100545FA
:102B000002E097F0FFFFE780A07C7D4697E5DDE7D8
:102B10009385052E054597000000E780C088814712
:102B2000054702E089480548A286228693050030C1
:102B3000054597F0FFFFE780406C854717E7DDE725
:102B4000232AF7E097E7DDE7938747E09C639C63E0
:102B500099C301458297E260426405450561828020
:102B60008DE517D4DDE70344545D97D7DDE783C7D0
:102B7000C75C1B1484005D8C97D6DDE783C6665C5A
:102B800097D7DDE783C7D75B8DB7029001448146B5
:102B900085B7854717E7DDE72322F7DA97E7DDE713
:102BA000938747DC8C632A86054517F3FFFF670090
:102BB000837F83574500639F071003572500631CDD
:102BC0000710011122E826E406EC834715001307DD
:102BD000E00FB2842E84638DE7001307F00F638348
:102BE000E7048147E2604264A2643E850561828019
:102BF00097E7DDE7938787D59863187F11E3029005
:102C00009C639C7F99C782977D3597E7DDE7238397
:102C1000A7D685479CC097E7DDE79387A7D51CE03B
:102C20008547C9B70357650081474DFF97E7DDE743
:102C300023AA07D097E7DDE723A407D097E7DDE7CE
:102C400023AE07CE97D7DDE723AE074897D7DDE75A
:102C500023A80748854717D7DDE72327F7487D4690
:102C600097E7DDE723AC07CE97E5DDE793854518C9
:102C7000054597E7DDE723AD071697E7DDE723ABCB
:102C8000071697E7DDE723A9071697E7DDE723A7F0
:102C9000071697E7DDE723A5071697E7DDE723A3E8
:102CA000071697E7DDE723A1071697E7DDE7239FE0
:102CB000071497E7DDE7238C071497E7DDE723B3D5
:102CC00007CA97E7DDE723B307CA97F0FFFFE7805E
:102CD000806DB9B781473E85828041119147054596
:102CE00006E417E7DDE7232BF7C497F0FFFFE78043
:102CF000C0A4A2600545410117F3FFFF6700E3A6EA
:102D000097E7DDE723A807C4B717202003D767009C
:102D100042174193759B421741932393E7002399F0
:102D2000071023AA072003D7870042174193759BFA
:102D3000421741932394E700239B071023A2072007
:102D400097E7DDE7938787C09C63BC6781CB411120
:102D500006E48297A2600545410182800545828094
:102D60001D714EFC978901009389C9F283B7090050
:102D700086ECA2E83EECA6E4CAE052F856F497E7E7
:102D8000DDE79387A7BB9C4311478127E361F710D9
:102D900017370100130747768A07BA979C43BA97FB
:102DA000828797E7DDE79387A7B99C430947812787
:102DB000E39FE70CFD47638CF500894717D7DDE7F4
:102DC0002324F73297000000E78060F131AF97E4E9
:102DD000DDE79384E401D84097E7DDE783C7370256
:102DE000294497D6DDE723ADE62E9440375742437A
:102DF00013075735639CE61A83C6D40017E7DDE74F
:102E0000034747B76364D71A03C7E400BD467D375D
:102E10001377F70F63ECE61817D7DDE71307072CD6
:102E2000184711C3029013073002638DE726636DC4
:102E3000F7080D47638FE744636DF702F9CF8547C5
:102E400017E7DDE72322F7B097E7DDE723BC07B0FC
:102E500097E7DDE723A407B0954717D7DDE72308F9
:102E6000F7289307400217D7DDE72307F72809441F
:102E700035AA49476383E70C6947E392E7FC854736
:102E800097E6DDE723A2F6AC97D7DDE793878717B0
:102E900097E6DDE723B8F6AC914797E6DDE7938642
:102EA000E6AB17E6DDE7232BF6AA9C4217E7DDE742
:102EB000034737F51D44812763EAE70E9C42194416
:102EC0008127637BF712DDA0130780026389E72A5D
:102ED000636DF70213075002E393E7F697E7DDE728
:102EE00023B207A897E7DDE723AA07A6854717E7D8
:102EF000DDE7232BF7A48387C40063C70710A1472E
:102F000017E7DDE7232CF7A49DA81307A002638928
:102F1000E73C1307F002E394E7F297E7DDE723A528
:102F200007A297E7DDE723BF07A297E7DDE723A71F
:102F300007A29C441144E9C395A8854717E7DDE73C
:102F40002324F7A097E7DDE723BE07A097E7DDE797
:102F500023A607A083D724011BD787001B998700CE
:102F60003369E9008387C4001B1909011B5A090151
:102F7000528963C8070097E7DDE723A1479F1544FF
:102F800035A09C4411446393470397E7DDE783C76B
:102F900027E713F7170019E3254489EB97E7DDE7E7
:102FA0009387C79A9C63BC6395E70D449C447D342A
:102FB0001374F40F17D7DDE72326F7122147E36ECA
:102FC00087DE97360100938666540A0436941840CB
:102FD000369702870C0817E5DDE7034535E282974F
:102FE00069D597E7DDE723BFA796C24763E84701A6
:102FF00097E7DDE723A4279705444DBF17E7DDE7F3
:10300000232EF7941D445DB783C774012544858B37
:10301000D1FF97E7DDE7938767939C630D449C6737
:10302000D1D710086C0017E5DDE7034535DD829741
:1030300097E5DDE783C595DC3145B387A5023247C7
:1030400017E6DDE71306C6DC7D379B568701B2978E
:103050002380D7009B560701A380D700A381E700F8
:103060009B568700035701012381D7003E869B565C
:1030700087001B178700558FC2462393E70094C72C
:103080001BD886019BD6060123820701A382D700A5
:1030900097E7DDE723B8C78CA14717E7DDE7232FC4
:1030A000F78A99BF83D764011BD787001B998700D4
:1030B00097E7DDE7938787899C633369E9004219C5
:1030C0009C671359090381CB10086C0017E5DDE7F5
:1030D0000345D5D282978357C1001D441BD7870073
:1030E0009B978700D98F32479B5687011B57070153
:1030F00017E6DDE7230AD6CE97E6DDE7A386E6CE20
:1031000017E7DDE72313F7CE835701011BD78700AD
:103110009B978700D98F0357210197E6DDE7A387A7
:10312000E6CC17E7DDE72314F7CC854717E7DDE7A3
:10313000232CF78097E7DDE79387C7CA17E7DDE71A
:103140002332F782B14797E6DDE723A9F68095475A
:1031500017E7DDE71307878097D6DDE72389F6F8C1
:103160009307000297D6DDE72388F6F81C438127F2
:10317000E3EE27E31C438127E36AF9E2B5BD97D765
:10318000DDE723B5077E854717D7DDE7232EF77ADE
:1031900017E5DDE7034595C6B1473307F50297E725
:1031A000DDE79387E7C617E9DDE7034979C51B1912
:1031B000890102E8BA97984797E7DDE783C767C4B4
:1031C0009B9707013369F90097E7DDE783C787C35A
:1031D0003369F90097E7DDE783C7B7C29B9787009C
:1031E0003369F900021993170702819313590902F1
:1031F0003309F90283D764019BD687001B9A8700A5
:10320000336ADA001B1A0A011B5A0A0197D7DDE755
:1032100093874772BB0AEA029C63568A63F62701CA
:1032200097D7DDE723B827718387C400054463C7B8
:10323000070097D7DDE723A3477315449C446383B6
:103240005701114497D7DDE7938747709C639C73C0
:10325000638D07180547631BE418D6864A860C0859
:103260008297C26701256382071817D7DDE7233BE2
:10327000F76E637B550197D7DDE723A1A76E97D73C
:10328000DDE723B5276F1DB397D7DDE723A8476D8B
:10329000FDB703C7040197E6DDE783C696B6B68798
:1032A000058B2544E31407D0054717D6DDE7232D0A
:1032B000E66817D7DDE7130767E317D6DDE72333A3
:1032C000E66A91E697D7DDE723AA076825BB494759
:1032D000E375D7DC17D7DDE72322D7681944F9B1A6
:1032E000314617E5DDE7034575B1B305C5028947EA
:1032F00017D7DDE7232AF76403D7640117E6DDE774
:10330000130606B197D7DDE723AA07641B1A8700C7
:1033100097D7DDE723B8076497D7DDE723B80764BD
:1033200002C82E969B5587001046336ABA001B1AB6
:103330000A011B5A0A01BB0ACA020387C40097E7A5
:10334000DDE783C7F7AB97E6DDE783C686AB17E813
:10335000DDE7034818AB17E3DDE70343A3AA054401
:10336000568A6357070017D7DDE72329575F1544AF
:10337000984463035701114417D7DDE71307075D2E
:103380001863833887026382080605476310E406E2
:103390009B9787019B96060133E9D7003369690043
:1033A0001B1788003369E9009317060202191359A5
:1033B000090281933309F9021008CA85829815C55C
:1033C00097D7DDE723B4275B97D7DDE723BCA75862
:1033D000C24763F7570117D7DDE72321F758F9B63E
:1033E00097D7DDE723AC4757D1B60D4497D7DDE734
:1033F00023A6075697D7DDE723B6075697D7DDE70D
:1034000023B6075665B697D7DDE723AF07CC97D726
:10341000DDE7938767539C430947639DE70097D790
:10342000DDE79387A7538843012597F0FFFFE780E7
:1034300080765DA885466397D70297D7DDE79387A7
:10344000E751904397D7DDE723AAE74E97D7DDE70B
:10345000938747518C630126054597F0FFFFE7806E
:1034600060F959A06395072297F0FFFFE780E058C5
:10347000A5A88D4717D7DDE72328F7C697D7DDE73F
:103480009387874C9C430947639BE70017D7DDE789
:103490001307C74C1C438127CDC3084371B785462A
:1034A0006397D71E97D6DDE79386464B9C428127CC
:1034B000C9C7904241BF97D7DDE79387E7489C4350
:1034C00009476394E70497D7DDE7938727499C432F
:1034D0008127638E071A894717D7DDE72326F7C0B0
:1034E00097F0FFFFE780205097D7DDE723AC074434
:1034F00097D7DDE723A60744626783B70900630215
:10350000F73C97B00000E780809205476391E71889
:1035100017D7DDE7232AF7BC0DA08547D5BF0547A0
:1035200097D6DDE723A2E6BC89CB8387C40063C6B8
:10353000070097F0FFFFE780004B97F0FFFFE78061
:10354000A04D5DB717D7DDE71307074010430947C4
:103550006315E60217D7DDE71307474014438126BA
:1035600099E2854795BF14438126E3E6D7F6854760
:1035700097D6DDE723AAF6B60DB785466317D602C0
:1035800097D6DDE79386863D8C428125F9D98C421A
:10359000812563F7B70097D7DDE723A7E7B471BFAD
:1035A00097D7DDE723A2C7B429B797D7DDE723ADC7
:1035B000D7B28387C400E3D2078041B7894789BF68
:1035C00017D7DDE7130707381C4385468127639625
:1035D000D71097D4DDE7938464B0D8448D46631345
:1035E000D70297D7DDE723AB073697D7DDE723BBB5
:1035F000073697D7DDE723BB073697D7DDE723A547
:1036000007AE25BF45EF17D4DDE713042435184076
:103610009C44012763EBE7021840999F17D7DDE729
:103620002322F7AC944485E697D7DDE723A8073239
:1036300097D7DDE723B8073297D7DDE723B80732FE
:1036400097D7DDE723A207AA05B50290E1BF97D778
:10365000DDE79387A72F9C639873630007F61C40F0
:1036600017D6DDE7130686300C6282178193AE977A
:1036700097D5DDE723BCF52E10620C0817D5DDE7E2
:103680000345D57702979C44012563F4A700029077
:10369000A1BDC26597D7DDE723A2A72C104097D71D
:1036A000DDE723B1B72C97D7DDE723AF07A2894722
:1036B00017D7DDE72324F728012679BBE319F7FCA8
:1036C00097D7DDE723AC072897D7DDE723BC07288A
:1036D00097D7DDE723BC07288DB51C430D4781270D
:1036E000E397E7FA0989E30105E055B717D7DDE766
:1036F000130707251C43894681276395D70E17DAE0
:10370000DDE7130AAA9D8327CA000D47E38BE7EC88
:10371000D5EB17D4DDE713046424184083278A000F
:10372000012763EAE7081840999F17D7DDE7232BA5
:10373000F79A1C4017D9DDE713094921833709009F
:103740009C7B638C07E697D4DDE7938424228C600E
:10375000104017D5DDE70345756A01268297832758
:103760008A00E38307EC1C4098600145821781932F
:10377000BA9717D7DDE7233BF71E833709009C77FD
:1037800081CB8C60100817D5DDE70345356782973C
:1037900083278A0042476372F70297D7DDE723AF9A
:1037A000E71A97D7DDE723BFA71A97D7DDE723AD41
:1037B0000792084095B90290ADBF17D7DDE7232FD8
:1037C000F718C5B70547E391E7D297D7DDE723A7F9
:1037D000071897D7DDE723B7071897D7DDE723B793
:1037E000071859B11C4311478127DDBD17D7DDE705
:1037F000130747151C4385468127639DD70817D7B4
:10380000DDE72323F78E97D7DDE723A9071497D7A2
:10381000DDE723BD07147D4697D5DDE79385455D3C
:10382000054517D7DDE72325075C17D7DDE72323F9
:10383000075C17D7DDE72321075C17D7DDE7232FC8
:10384000075A17D7DDE7232D075A17D7DDE7232BB4
:10385000075A17D7DDE72329075A17D7DDE72317BC
:10386000075A17D7DDE72304075A17D7DDE7232BBD
:10387000078617D7DDE72325078697D7DDE723B32C
:10388000070E97D7DDE723AB070A97F0FFFFE78026
:1038900080B199B91C430D478127E397E7C4098993
:1038A000E30405C417D7DDE7130747835847E31D33
:1038B000F7BA79B3914717D7DDE72321F7086FF0FF
:1038C0006FD0E6604664A6640669E279427AA27A1D
:1038D00025618280411106E493F7F5002E8599CF8A
:1038E0009147B28517D7DDE7232CF70497F0FFFF48
:1038F000E7804047A2600545410182808947D5B7EE
:10390000411106E493F725002E8599CF8D47814517
:1039100017D7DDE72328F70297F0FFFFE780804401
:10392000A2600545410182808547D5B797D7DDE77D
:1039300023BEA70097D7DDE723A0B70217D5DDE7A1
:103940001305458017E3FFFF670083DE9B17250003
:103950003B87B7006373B5007D373A8582800215D7
:10396000019193078018B307F50217D5DDE713051A
:10397000654D3E95032585188280914763E0A70435
:10398000173701001307C7BA0A053A951C41BA97C1
:103990008287B70700028CC305458280B707000203
:1039A000CCC3DDBFB70700028CC7FDB7B707000265
:1039B000CCC7DDB7B70700028CCBF9BF41119736F2
:1039C00001009386A6DF173601001306A6D29305E1
:1039D000300D173501001305E5DE06E497500000B1
:1039E000E78060DB4111854522E006E42A849700E8
:1039F0000000E780C0F815C19317040281931304F7
:103A00008002B387870217F7DDE71307A743BA974A
:103A100003B70728050723B0E728A2600264410125
:103A20008280814517030000670063F5411106E4B9
:103A3000914663F4B60297360100938626B917368D
:103A40000100130626CC930510101735010013054D
:103A500065D797500000E78000D4639DA500973696
:103A600001009386A6B8173601001306A6C9930570
:103A70002010E1BF97000000E78080ED021593075A
:103A8000801801913305F502A26097D7DDE793878F
:103A9000E73B41013E958280397132EC36E83AE4E9
:103AA00006FC22F826F42A84AE8497C00000E78042
:103AB00060E3A285012597000000E78060E9021518
:103AC000019193078018B307F50297D5DDE7938539
:103AD00065376266C2662267A107AE97138807182A
:103AE00083A8070063820806E107E31BF8FE97A09E
:103AF0000000E780602E054597A00000E780E02ADF
:103B000097350100938505C21725010013058555DA
:103B100097B00000E78060DD0D4597A00000E780CA
:103B2000C028173501001305E5BA97B00000E780FB
:103B3000C0DB014597A00000E7802027E2704274B7
:103B4000A27401452161828084C3D0C398EB94C7DD
:103B50008567938787863E950A05AA9590C50F00CD
:103B6000F00F22854274E270A274216117030000F5
:103B7000670083E75D71A2E026FC4AF84EF452F03C
:103B800056EC5AE85EE462E086E41B0A050097C042
:103B90000000E78020D585679B0A050001440149A4
:103BA00097D4DDE79384042A938B87869389C7870C
:103BB000130B8018154C638C8A04BB578A00858BC5
:103BC000B9C7D685228597000000E78060D8021526
:103BD0000191B30775018A07A6979847B307350186
:103BE0008A07A69794476384E60298C7B3076503DC
:103BF000C1460147A697904711C20527FD36E10748
:103C0000FDFA33056503054926952324E5180524A7
:103C1000E31384FBA66006644A85E2744279A279C4
:103C2000027AE26A426BA26B026C616182805D7112
:103C300086E4A2E026FC4EF4AA84AE894AF852F04B
:103C400056EC5AE85EE462E097C00000E78080C965
:103C50009B050500268597000000E78060CF1314C0
:103C600005020190130580183304A40217770100A0
:103C70001307C7F718639397090217D5DDE71305F4
:103C8000651C819321042A9463E4E70297360100BE
:103C90009386468B173601001306C6A99305301983
:103CA00017350100130505B297500000E780A0AE5C
:103CB000139747009727010093874756BA97984371
:103CC000630D3701973601009386C68917360100C8
:103CD000130646A693054019E1B703BA87002A895F
:103CE000930A0418173B0100130BCBA4972B010078
:103CF000938B4B37173C0100130CCC891C40639508
:103D0000370563130A0697A00000E780E00C05451D
:103D100097A00000E7806009DA855E8597B0000013
:103D2000E780A0BC0D4597A00000E7800008CE8585
:103D3000628597B00000E78040BB014597A0000076
:103D4000E780A006232004006104E31954FB014529
:103D5000A6600664E2744279A279027AE26A426B52
:103D6000A26B026C6161828097C00000E78080B71F
:103D700002159307800201913305F502A685B3076A
:103D8000A90009653E95833785278507233CF526DD
:103D9000146810444840029A1C4005470125CD375D
:103DA0006378F7028947630CF5008D476302F502DB
:103DB00050406313E50201478546B94529A05040AC
:103DC00001478946B545268597000000E78000CD6C
:103DD000232004000545ADBF01478146F9BF4111CD
:103DE00006E422E097A00000E78000FF054597A0C9
:103DF0000000E78080FB9735010093852595172506
:103E000001001305252697B00000E78000AE0145AC
:103E100097A00000E78060F909649305843217D603
:103E2000DDE713062602173501001305A58797B0B5
:103E30000000E78080AB014597A00000E780E0F636
:103E400097D6DDE7938606001306843281453685D2
:103E500097500000E780A0A105469317060217F7C8
:103E6000DDE7130727FE85072334F7242338F724DB
:103E7000930710101CC1232CC724A26002640545BF
:103E800041018280397106FC22F826F44AF04EEC9A
:103E900052E856E41DE1972601009386A676173670
:103EA00001001306A68B9305C020173501001305EA
:103EB000659197500000E780008EAA8A97F7DDE7AA
:103EC0009387C7E20149130700049443C1EE13141A
:103ED0000902B14701903304F40297D4DDE79384DB
:103EE00064F689698547056A130A0A8926944E94FF
:103EF0002324F4EA97C00000E780C09E02150191D8
:103F000052950A0526951C452326F4EA894723285D
:103F1000F4EA97C00000E780E09C021501915295F9
:103F20000A0526951C4585271CC523A02A0197C094
:103F30000000E780209B0215930780020191330562
:103F4000F502AA94CE9483B704260545850723B0CD
:103F5000F426E2704274A2740279E269426AA26AAB
:103F6000216182800529B107E311E9F60145D5B742
:103F70000111AA8706EC2E8522E8B28526E44AE0E4
:103F80001306F0036374F602972601009386066C0D
:103F9000172601001306067E9305902217350100AF
:103FA0001305458297400000E780E07E82178193E9
:103FB0003146B387C70217D9DDE71309A9E80964B9
:103FC000CA97A29783A487EA95C803A6C7EA970071
:103FD0000000E780A0ACAA8415C197C00000E7806C
:103FE000609002159307800201913305F5022A992A
:103FF0004A948337842685072334F426E26042649A
:1040000026850269A2640561828013070004637635
:10401000A7024111972601009386466017260100EA
:104020001306C6769305B02317250100130585797D
:1040300006E497400000E7800076AA870545638480
:10404000E702821731458193B387A70217F5DDE7B1
:10405000130545DFAA9703A587EA11C503A507EB5A
:1040600079153335A000828017F7DDE7130747C8BD
:1040700081479306000410436310A602821731475C
:104080008193B387E70217F7DDE71307A7DB054541
:10409000BA9723A8B7EA828085273107E39DD7FC2A
:1040A000014582800215B14701913305F5020111E6
:1040B00026E497D4DDE79384E4D822E8096406EC8B
:1040C00026952295832785EA9DE39726010093860E
:1040D000E65A172601001306666D930590261725EC
:1040E00001001305256E97400000E780C06A232475
:1040F00005EA97B00000E780E07E02159307800292
:1041000001913305F502AA94269483370427850785
:104110002338F426E2604264A26405618280411182
:104120008D4506E497000000E78040F4A260054555
:104130004101828038619307000482179387070446
:104140001CFB82808280411106E422E02A8497A031
:104150000000E78060C8054597A00000E780E0C444
:10416000973501009385858717250100130585EF95
:1041700097A00000E78060770D4597A00000E780DA
:10418000C0C20C68173501001305459D97A00000BB
:10419000E780A075014597A00000E78000C199471E
:1041A0001CC0A260026441018280411106E422E049
:1041B0002A8497A00000E78020C2054597A0000050
:1041C000E780A0BE972501009385457E1725010055
:1041D000130545E997A00000E7802071014597A0ED
:1041E0000000E78080BC0C6817350100130505C08E
:1041F00097A00000E780606F0264A2600145410162
:1042000017A30000670063BA3C6185458843170324
:104210000000670003A259715AF886F4A2F0A6ECD8
:10422000CAE8CEE4D2E056FC5EF462F066EC6AE8DE
:104230006EE417CBDDE7130B6B748339050403378A
:104240000B0003A909001DE39736010093868686BB
:1042500017260100130686739305402017350100C9
:104260001305C58697400000E780E0521B04F9FF64
:10427000931404021B0A04008190130480123384F7
:104280008402AA8A229714776381061E187F630A24
:104290000724021ADA8B135A0A02130B8012330A0C
:1042A0006A03172C0100130C6C7B173D0100130DE2
:1042B0006D84938D4903832C8C00630D990D1B84B1
:1042C000FCFF021401903304640303B70B00B30630
:1042D0008700529794761877639EE60A97A00000AD
:1042E000E78080AF054597A00000E78000AC9725E8
:1042F00001009385A569172501001305A5D697A090
:104300000000E780805E014597A00000E780E0A9FB
:1043100003B70B0083B50A016686229714776A8576
:1043200097A00000E780605C014597A00000E7804F
:10433000C0A76E8597000000E78000B501ED9726C5
:1043400001009386267D1726010013062664930537
:10435000C02129B70F00F00F0F10000003B70B00AA
:104360009306840203A549033A94369783460403CF
:104370004946E68597000000E780C0BF01ED97261B
:1043800001009386267917260100130626609305FF
:104390005022E9B5410C9727010093872770E31C51
:1043A000FCF01304801297A00000E780E0A23384A1
:1043B0008402054597A00000E780209F9725010013
:1043C0009385C55C172501001305C5C997A000009A
:1043D000E780A051014597A00000E780009D03B74A
:1043E0000B0083B50A014A8622971477172501002E
:1043F0001305457097A00000E780204F014597A066
:104400000000E780809A1385090397000000E78089
:10441000A0A701ED972601009386C66F172601001D
:104420001306C6569305C02215BD0F00F00F0F10DE
:10443000000083B70B001307840203A509033E9411
:10444000834604033E974946CA8597000000E780EB
:1044500060B241E9972601009386C66B17260100DA
:104460001306C65293054023D5BB97A00000E780F2
:10447000A096054597A00000E780209397250100AE
:104480009385C550172501001305C5BD97A00000F1
:10449000E780A045014597A00000E78000918336A2
:1044A0000B0083B50A014A8636941874172501005B
:1044B0001305C56697A00000E78020430674A67028
:1044C000E6644669A669066AE27A427BA27B027CC0
:1044D000E26C426DA26D0145656117A300006700A3
:1044E000C38CA6700674E6644669A669066AE27A19
:1044F000427BA27B027CE26C426DA26D6561828090
:1045000097C7DDE7938787479C6381C785471CC1B1
:104510008280411106E422E02A8497A00000E7800F
:10452000A08B054597A00000E78020889725010013
:104530009385453A172501001305C5B297A00000E1
:10454000E780A03A0D4597A00000E78000860C6840
:10455000172501001305056E97A00000E780E038DD
:10456000014597A00000E78040849D471CC0A260E1
:10457000026441018280011126E406EC22E81C411C
:1045800093040004638997002A843E859700000005
:10459000E78080B104C0E2604264A2640561828069
:1045A000011122E826E406ECAA8448599307000486
:1045B0000544630EF50097000000E78040A52A84BB
:1045C00019C51385440397000000E78000FB885855
:1045D00093070004630FF50097000000E78020A315
:1045E000698C012419C41385040397000000E78037
:1045F000C0F82285E2604264A264056182800111F4
:104600004AE006EC22E826E424619306801217C7EC
:10461000DDE71307A7369C401863FD371B890700A9
:1046200082178193B387D702BA979C7789EB994712
:104630001CC1E2604264A2640269056182802A842E
:10464000086DB1659385053597C0FFFFE780C0020F
:104650002DC997900000E7802078054597900000CD
:10466000E780A074972501009385C53517250100C3
:104670001305459F97A00000E78020270D459790E0
:104680000000E780807210740C6817250100130584
:10469000657097A00000E7804025014597900000D5
:1046A000E780A0701385440397000000E780E0ECEA
:1046B0001385040397000000E78020EC9D471CC091
:1046C0008DBF286097000000E780C0ED3DD1B73670
:1046D000002083A7461005473B172701D98FC21733
:1046E000C19323A2F61097900000E780E06E054585
:1046F00097900000E780606B972501009385852CDB
:10470000172501001305059697A00000E780E01D1E
:10471000014597900000E78040690C68172501006B
:104720001305C56997A00000E780201C01459790FC
:104730000000E7808067994759B7011122E806EC2D
:1047400026E42A84086DB7353101938505D097C0DA
:10475000FFFFE78060F235CD97900000E780C067EB
:10476000054597900000E7804064972501009385F8
:10477000E517172501001305E58E97A00000E780D7
:10478000C0160D4597900000E780206210740C68F9
:10479000172501001305056097A00000E780E014CD
:1047A000014597900000E780406024601385440332
:1047B00097000000E78060DC138504039700000089
:1047C000E780A0DB9D471CC0E2604264A2640561F3
:1047D0008280286097000000E780C0DC75D58D4797
:1047E000DDB717C7DDE713076719346118639C420B
:1047F0000DE74111972601009386C62B172601006D
:104800001306C6149305801A172501001305052CFD
:1048100006E497400000E78000F8FD378217130692
:1048200080128193B387C702BA97907F19CE106F19
:1048300023BC060023B40602329798E6B0639307C0
:104840008002B387C7023E9798E6828097C7DDE76C
:104850009387C7129C6338618DE741119726010049
:1048600093864625172601001306460A930540182D
:10487000172501001305852506E497400000E78011
:1048800080F19473B6971CEB8280411106E422E01C
:1048900097C7DDE79387870E9C6320619DE397268A
:1048A000010093862621172601001306260893058A
:1048B000F018172501001305652197400000E780D7
:1048C00080ED1C68906B15C2944318406398E60015
:1048D0008867814597400000E78060F91C68E10720
:1048E0001CE8A26002644101828091471CC1D5BFCF
:1048F000411106E41DE1972601009386261A17262A
:1049000001001306A6FB9305E00E17250100130511
:10491000E51B97400000E78000E8186D01EF97263F
:1049200001009386261817260100130626F9930521
:10493000F00EE1BF17C7DDE713074704AE870C632E
:1049400018650869A260BA9513060010BE953E95D9
:1049500041011743000067006315011106EC22E8CE
:1049600026E497C7DDE79387670120619C631440C5
:104970009DE3972601009386E61317260100130690
:10498000E6FE9305601C17250100130525149740CA
:104990000000E78040E01B87F6FF02170193130633
:1049A00080123307C702BA97987F39CF186CBC675B
:1049B00063E9E7040464906C29C68840631AD50251
:1049C0008C6897000000E78060451DC10C74268547
:1049D00097000000E78000F21C74938707101CF416
:1049E000986C637BF7001C6C2334040285071CEC75
:1049F0001C64938787021CE4E2604264A264056140
:104A0000828095471CC1CDBF9947EDBF1D71A2E8BB
:104A1000A6E44EFC52F856F45AF05EEC62E866E406
:104A200086ECCAE097240100938444030144814743
:104A30009B090500854B094C994C172A0100130A64
:104A40006AFB971A0100938AEA61172B0100130B86
:104A5000EBD8638F090098443B97EB0011CB03B967
:104A600004008327090063988703232009008547F2
:104A700005241147C104E31EE4FCE6604664A66415
:104A80000669E279427AA27A027BE26B426CA26CFE
:104A90003E8525618280F1DBE38997FD97900000D8
:104AA000E7808033054597900000E7800030D2858D
:104AB000568597A00000E78040E30D4597900000E1
:104AC000E780A02E8325090022865A8597A0000042
:104AD000E780A0E1014597900000E780002D814725
:104AE00041BF411122E006E495472A846306F50C94
:104AF00097900000E780402E054597900000E780E2
:104B0000C02A972501009385E5EF171501001305CD
:104B1000655597A00000E78040DD014597900000B3
:104B2000E780A028A28517250100130525D697A0A8
:104B30000000E78080DB014597900000E780E026D9
:104B400097C7DDE7938787E38C639B07F4FF8217A2
:104B5000130880128193B3870703172601001306F9
:104B6000E6EF97280100938868F381460543AE97E6
:104B700008466302A4021B07F5FF021701933307DF
:104B800007032E97033E870298776316EE003B15C6
:104B9000A300C98E81264106E39CC8FC05453B1550
:104BA0008500558D97000000E78080E6A2600264D2
:104BB0003335A0004101828097900000E780C0213A
:104BC000054597900000E780401E972501009385DA
:104BD00065E3171501001305E54897A00000E7807D
:104BE000C0D0014597900000E780201C17250100E8
:104BF000130545CB97A00000E78020CF2DBF2E8561
:104C000017030000670023EE97C7DDE723B8A7D698
:104C10008280411106E422E097B00000E78080CC5A
:104C20001B04050097900000E780001B0545979046
:104C30000000E780801797250100938525DE171572
:104C400001001305254297A00000E78000CA014536
:104C500097900000E7806015A285172501001305D5
:104C600065BA97A00000E78040C801459790000012
:104C7000E780A013021497E7DDE79387274F798039
:104C80003E941C40172501001305C5B999EB8547D3
:104C90001CC097300000E780A06D172501001305A8
:104CA000E5B697A00000E78040C4A2600264054515
:104CB00041018280011106EC22E826E44AE0954792
:104CC0006314F502972601009386C6B717260100E4
:104CD0001306C6D69305F03517250100130505DF29
:104CE00097400000E78020ABAA842E852E8497F0A1
:104CF000FFFFE780601901ED97260100938686E1AA
:104D000017260100130686D393054036F1B70840F5
:104D1000014781460946A68597F0FFFFE780802579
:104D20002A8931ED97900000E780000B05459790A8
:104D30000000E780800797250100938525D017158F
:104D400001001305253297A00000E78000BA014555
:104D500097900000E7806005A685172501001305E0
:104D6000E5AF97A00000E78040B8014597900000AC
:104D7000E780A003084097F0FFFFE780E032E260A1
:104D800042644A85A264026905618280411122E081
:104D900006E43C61130700042A84945B6388E60000
:104DA00089471CC0A26002644101828088439385C8
:104DB000070397000000E78020F07DF1E5B741117F
:104DC00006E497900000E7802001054597900000D9
:104DD000E780A0FD97250100938545111715010077
:104DE0001305452897A00000E78020B00145979063
:104DF0000000E78080FB172501001305A50D97A093
:104E00000000E78080AE014597900000E780E0F960
:104E1000A26005454101828005458280014582806E
:104E200018619C616318F70008659C651D8D13353A
:104E30001500828001458280397152E817CADDE78A
:104E4000130A4AB483370A0006FC22F826F44AF013
:104E50004EEC56E49DE3972601009386262D1726F7
:104E600001001306263B9305100D172501001305BD
:104E7000652D97400000E7800092AA8401ED9726F7
:104E800001009386A62D172601001306A638930568
:104E9000200DE1BF2E8481ED972601009386862D9B
:104EA00017260100130606379305300D7DBF9319B1
:104EB00096003289CE85130600202285B68A829715
:104EC00025E597900000E78020F1054597900000C8
:104ED000E780A0ED972501009385C53317150100E4
:104EE0001305451897A00000E78020A00D45979076
:104EF0000000E78080EB5686CA8517250100130560
:104F0000E52897A00000E780409E014597900000AB
:104F1000E780A0E90145E2704274A2740279E26977
:104F2000426AA26A2161828003E54405A464930772
:104F3000F01F33055503B3049940A604B30495400C
:104F400063FC970083370A0013060020938509202D
:104F500013050420829735D5330594006DBF5D712C
:104F600086E4A2E026FC4AF84EF452F056EC5AE8E9
:104F70001DE1972601009386661E17260100130681
:104F8000662B93054012172501001305A51B9740BA
:104F90000000E78040802E8481ED972601009386F3
:104FA000E6F5172601001306E62893055012E1BF27
:104FB000B28901EE972601009386C61B17260100D1
:104FC00013064627930560127DBF368A81EE972629
:104FD00001009386A6F3172601001306A625930564
:104FE000701255B72A893E8B81443DE39726010014
:104FF000938646F3172601001306C62393058012F5
:1050000059B70366490583378904A6863306960295
:10501000CE854A853AE425823E9697000000E780D7
:10502000E0E1A285AA8A029B226715C183B70A0222
:105030002330FA0083B78A021CE3A6600664E27498
:105040004279A279027AE26A426B616182808504C8
:1050500083660905E3E7D4FA97900000E780C0D79C
:10506000054597900000E78040D49725010093857F
:10507000651C171501001305E5FE97A00000E780E9
:10508000C0860D4597900000E78020D208649740C5
:105090000000E780208C83566400035644000C40D7
:1050A0002A8717250100130565E997A00000E7800E
:1050B000C083014597900000E78020CF0145B5BF30
:1050C0000DE54111972601009386C6ED17260100D4
:1050D0001306C60F93054003172501001305850627
:1050E00006E497300000E780006B97C7DDE723BB3D
:1050F000A7888280797106F422F026EC4AE84EE413
:105100001DE1972601009386660517260100130608
:10511000E60D9305A008172501001305A502973099
:105120000000E7804067214697250100938505E848
:105130002A8497300000E780C07EAA842DC1979012
:105140000000E78060C9054597900000E780E0C552
:10515000972501009385850917150100130585F032
:1051600097900000E78060780D4597900000E780F9
:10517000C0C317250100130565E497900000E78080
:10518000C076014597900000E78020C28144A2705C
:10519000027426854269E264A269456182801844EE
:1051A000C1676307F70497900000E780E0C20545F8
:1051B00097900000E78060BF972501009385050365
:1051C00017150100130505EA97900000E780E071CC
:1051D0000D4597900000E78040BD0C4441661725BF
:1051E00001001305A5DF97900000E780007051BF14
:1051F0008365C40003290401228523280400974005
:105200000000E780C0899B0905002328240163036F
:10521000390597900000E78020BC05459790000075
:10522000E780A0B897250100938545FC171501007C
:10523000130545E397900000E780206B0D4597909C
:105240000000E78080B64A86CE8517250100130549
:10525000E5DB51BF186C85476307F70497900000A2
:10526000E78080B7054597900000E78000B4972558
:1052700001009385A5F7171501001305A5DE97908A
:105280000000E78080660D4597900000E780E0B160
:105290000C6C054617250100130545DA97900000B0
:1052A000E780A064F9BD033984048947630BF904DE
:1052B00097900000E78040B2054597900000E78096
:1052C000C0AE97250100938565F2171501001305FF
:1052D00065D997900000E78040610D4597900000E8
:1052E000E780A0AC0C6C094617250100130585D793
:1052F00097900000E780605F014597900000E7808D
:10530000C0AA8947E315F9E897900000E780C0AC90
:10531000054597900000E78040A9972501009385F7
:10532000E5EC171501001305E5D397900000E78021
:10533000C05B014597900000E78020A7172501007A
:105340001305C5D697900000E780205A0145979035
:105350000000E78080A585441DBD411106E422E0E0
:105360001DE197260100938666DF172601001306CC
:1053700066E99305D00B172501001305A5DC9730CE
:105380000000E780404197B7DDE79387A75F9C6304
:1053900081EF97260100938666D917260100130630
:1053A00066E69305E00BC1BF1306002093050020BD
:1053B00082972A8421E997900000E780E0A10545C3
:1053C00097900000E780609E97250100938585E314
:1053D00017150100130505C997900000E780E050FC
:1053E0000D4597900000E780409C172501001305AC
:1053F000E5B897900000E780404F01459790000086
:10540000E780A09A2285A26002644101828097070A
:105410000000938727A117030000670083B4797108
:1054200006F422F026EC4AE84EE41DE1972601003E
:105430009386C6D217260100130646E1930580160F
:1054400017250100130505D097300000E780A03430
:105450002A84AE8901498144B1E5972601009386EB
:1054600066D117260100130666DE93059016C9BFA4
:10547000836744053064CE85B3872703CA862285B7
:10548000A5833E9697000000E780409BAA8571C9DE
:10549000036644052685050997300000E780C05C57
:1054A0009B04050083670405E364F9FC3C4C3389E5
:1054B0009740133919006395970497900000E7808F
:1054C000A091054597900000E780208E9725010068
:1054D0009385C5D7171501001305C5B8979000002F
:1054E000E780A040014597900000E780008C1725D9
:1054F0000100130525C197900000E780003FA9A097
:1055000097900000E780408D054597900000E78068
:10551000C08997250100938565D3171501001305F0
:1055200065B497900000E780403C0D4597900000DF
:10553000E780A087304CA68517250100130505B923
:1055400097900000E780603A014597900000E7805F
:10555000C085A27002744A85E2644269A26945610D
:1055600082800149FDB71C4185271CC18280797169
:1055700026EC97B4DDE79384E441986006F422F0CA
:105580004AE84EE41DE3972601009386A6E017261D
:105590000100130626D59305700617250100130593
:1055A000E5E097300000E780001F1C4F63D5070A35
:1055B00097B7DDE79387873E80633E8911E4006BF0
:1055C00097B7DDE723BC873C856763F387000564F5
:1055D00097B9DDE79389893B0C6703A5090022860B
:1055E00097000000E78080831DC19C6003A509002F
:1055F00022868C6397000000E780808209C99C6046
:1056000022868C63886797300000E780204A8337C2
:10561000090063FD870097260100938626DB172685
:105620000100130626CC9305100885BF33848740FC
:1056300097B7DDE723B4873601E89C6093870702BC
:1056400017B7DDE72338F734A2700274E2644269C9
:10565000A2694561828085471CC197B7DDE723BBFE
:10566000073297B7DDE723A30732F9BF411122E0E4
:1056700017B4DDE713044499084006E497E0FFFF00
:10568000E780202E012519C50840994597E0FFFFC6
:10569000E780205A1C401547A2608527BBF7E70228
:1056A000026417B7DDE72321F79641018280797103
:1056B00036E406F422F026ECAE8497800000E78002
:1056C000A071054597800000E780206E97250100B6
:1056D000938545C3171501001305C59897900000E1
:1056E000E780A020014597800000E780006C17B498
:1056F000DDE7130424C90C4017250100130505B785
:1057000097900000E780601E014597800000E780C9
:10571000C069A2669DE2972601009386A6B7172668
:105720000100130626BE93059009172501001305F5
:10573000E5C797300000E780000618408547630DF5
:10574000F70097260100938666B717260100130617
:1057500066BB9305A009D1BF97B7DDE723A89722C1
:1057600097B7DDE723B8D722A2700274894717B72D
:10577000DDE72329F7C0E264054545618280797140
:1057800006F422F026EC4AE84EE4B5C12E89978053
:105790000000E7806064054597800000E780E060D6
:1057A00097250100938585D3171501001305858B77
:1057B00097900000E7806013014597800000E78024
:1057C000C05ECA8517250100130545C697900000E5
:1057D000E780A011014597800000E780005DA2707E
:1057E0000274E2644269A269014545618280B6841F
:1057F0009DE2972601009386E6C617260100130650
:10580000E6CD93052006172501001305A5C797309F
:105810000000E78040F8014785462A84B945B289EF
:105820002A86014597E0FFFFE78040278D452285C6
:1058300097F0FFFFE780808397A00000E780800A51
:105840009B050500014597E0FFFFE780601E1307F9
:105850000518AA87D44363898600E107E39CE7FE25
:1058600003274518E31D87F623A007009780000053
:10587000E7808056054597800000E7800053972514
:1058800001009385A5C5170501001305A57D979017
:105890000000E7808005014597800000E780E05028
:1058A0008C60172501001305E5BF97900000E78085
:1058B000C003014597800000E780204F97A00000BB
:1058C000E78040021B04050089476301F40463E498
:1058D000870285476316F404B707000223A2070076
:1058E000906093960902014781928145014597A0F6
:1058F0000000E780206B8D47630FF4009147631130
:10590000F402B707000223A80700D9BFB7070002B7
:1059100023A40700F1B7B707000223A60700C9B701
:1059200097800000E780404B054597800000E780A6
:10593000C04797250100938565BA17050100130537
:10594000657297900000E78040FA0145978000005B
:10595000E780A045A285172501001305A5B6BDB5B2
:10596000F94717B7DDE7232FF70285471CC182806F
:10597000011122E806EC26E44AE097B7DDE79387B9
:105980006702884397E0FFFFE780001F2A8497A003
:105990000000E78020F539C09B040500014415494B
:1059A000638B8402A685228597E0FFFFE78040FA9B
:1059B000012597E0FFFFE780C0FA012509CDB94531
:1059C000228597E0FFFFE780C026B545228597E056
:1059D000FFFFE78000260524E31424FDE260426413
:1059E000A26402690561828085471CC18280011121
:1059F00006EC2AE497000000E78040062265854710
:105A00001CC1E26005618280411122E006E42A8423
:105A1000B7450C01086D9385D588AE0597B0FFFF9B
:105A2000E78080C519C189471CC0A260026441019A
:105A30008280000000000000000000400000000024
:105A4000000097070000938767FF8863828017A58F
:105A5000DD5F1305255B828082801C4185271CC188
:105A600082808280914763F6A70241119726010048
:105A70009386C6C8172601001306C6C39305700493
:105A800017250100130505C906E497300000E780DB
:105A900080D08567938707083305F50297D7DDE740
:105AA0009387476E3E958280011122E806EC26E43A
:105AB0002A8497A00000E780E0E21B07050063044A
:105AC0008702972601009386E6B917260100130680
:105AD000E6BF9305B007172501001305A5C397304E
